:020000040800F2
:1000000030150020D501000847140008A909000890
:10001000CD0E0008FD070008772000080000000052
:100020000000000000000000000000003117000880
:100030000108000800000000191600084518000813
:10004000EF010008EF010008EF010008EF010008D0
:10005000EF010008EF010008EF010008EF010008C0
:10006000EF010008EF010008EF010008EF010008B0
:10007000EF010008EF010008EF010008EF010008A0
:10008000EF010008EF010008EF010008EF01000890
:10009000EF010008EF010008EF010008EF01000880
:1000A000EF010008EF010008EF010008EF01000870
:1000B000EF010008EF010008A9180008EF0100088F
:1000C000EF010008EF010008EF010008EF01000850
:1000D000EF010008A51D00085D1E0008EF010008E3
:1000E000EF010008EF010008EF010008EF01000830
:1000F000EF010008EF010008EF010008EF01000820
:10010000EF010008EF01000801190008EF010008E5
:10011000EF010008EF010008EF010008EF010008FF
:10012000EF010008EF010008EF010008EF010008EF
:1001300000F002F800F03FF80AA090E8000C8244BA
:100140008344AAF10107DA4501D100F034F8AFF297
:10015000090EBAE80F0013F0010F18BFFB1A43F0A5
:100160000103184794730000B4730000103A24BFD1
:1001700078C878C1FAD8520724BF30C830C144BF0C
:1001800004680C607047000000230024002500264E
:10019000103A28BF78C1FBD8520728BF30C148BFEA
:1001A0000B607047642900F06780002070471FB51E
:1001B0001FBD10B510BD00F0F3FA1146FFF7F7FFB1
:1001C00003F01CFD00F011FB03B4FFF7F2FF03BCCA
:1001D00001F0D7FF0948804709480047FEE7FEE7DE
:1001E000FEE7FEE7FEE7FEE7FEE7FEE7FEE7FEE7E7
:1001F00004480549054A064B7047000049180008A5
:1002000031010008300300203015002030050020A7
:1002100030050020704710B54C1084EA530404D513
:100220004042C1F1000138BF491E1B4204D5524271
:10023000C3F1000338BF5B1E00F056F914F0804F85
:1002400004D04042C1F1000138BF491E14F0004FF4
:1002500004D05242C3F1000338BF5B1E10BD000042
:100260000FB4044910B503AA029800F031FA10BC8B
:100270005DF814FB340000202DE9F041064600240F
:1002800010687529314616A510D0AFF300800028FC
:1002900002DA404213A507E031688A0701D512A5AA
:1002A00002E0490704D511A5012401E0AFF3008065
:1002B00000210A2206F1240709E0B0FBF2FCB0FBA2
:1002C000F2F302FB1C00303078541846491C002819
:1002D000F3D123462A463046BDE8F04100F086B906
:1002E000000000002D0000002B0000002000000096
:1002F0002DE9F05F894604464FF0000ADFF874B13B
:10030000FB44C0F820A02046E1688847002874D04C
:10031000252806D0D4E901219047206A401C20629C
:10032000F1E700265F462046E16888472028054619
:1003300007DB312D05D2781910F8200C08B10643DF
:10034000F1E7B00701D526F00406C4F81CA0002789
:10035000C4F818A02A2D09D0284601F00BFF38B3A5
:1003600004EB8708303DC8F8185019E059F8041B11
:10037000204604EB87029161E1688847012F05461A
:1003800018D1E069002820DA26F020061DE0D8F810
:10039000180000EB800005EB40003038C8F818006A
:1003A0002046E1688847054601F0E4FE0028EED1CA
:1003B000012F0AD02E2D08D12046E16888477F1CE6
:1003C0000546022F46F02006C4DBA069002803DAA8
:1003D000404246F00106A061F00701D026F0100669
:1003E0006C2D0BD0682D09D04C2D39D06A2D35D00D
:1003F000742D35D07A2D33D016E038E0E1682F46E1
:1004000020468847B842054609D16C2F26D04FF4C4
:100410008060E168064320468847054604E06C2F6B
:100420001AD04FF4807006430DB3A5F1410019288E
:1004300002D8203546F400664A4629462046266002
:100440004E46FFF7AFFE80B101280BD0F61D26F017
:10045000070000F1080956E74020E4E78020D8E7CC
:100460000020D6E706F104094DE7284652E7206A46
:10047000BDE8F09FA270000040EA010310B59B07A1
:100480000FD1042A0DD310C808C9121F9C42F8D0FE
:1004900020BA19BA884201D9012010BD4FF0FF30AF
:1004A00010BD1AB1D30703D0521C07E0002010BDC5
:1004B00010F8013B11F8014B1B1B07D110F8013B51
:1004C00011F8014B1B1B01D1921EF1D1184610BD32
:1004D00002F0FF0343EA032242EA024200F00CB9B1
:1004E000704770477047704753EA020C00F069800C
:1004F0002DE9F04B4FF00006002B1FBFB3FA83F538
:1005000003FA05F424FA05F65E4012BF1643B2FA68
:1005100082F502FA05F4C5F120051EBF22FA05FC9A
:1005200044EA0C04203556EA044C4FEA144418BF40
:10053000641C4FF000084FF00009904271EB030C6F
:1005400039D3002919BFB1FA81F701FA07F6B0FAD9
:1005500080F700FA07F6C7F120071EBF20FA07FC54
:1005600046EA0C062037B6FBF4FCA7EB0507103F64
:1005700007F01F0BCBF120060CFA0BFB2CFA06F64A
:1005800044BFB3460026202FA4BF5E464FF0000BA9
:100590005BEA060C08BF4FF0010B19EB0B09ABFB34
:1005A000027C48EB0608C01B06FB02CC0BFB03CC0D
:1005B00071EB0C01C1E70B46024641464846BDE8D7
:1005C000F08B13B54FF000004FF00001AFF3008047
:1005D000BDE81C40704710B500F0AEF8006810BDD3
:1005E00010B5044600F0A8F8046010BD2DE9F047EE
:1005F0000D4699469246044600F124080168880693
:1006000004D5E06921F01001216000E00120A8423A
:1006100001DD471B00E00027A1697A1902EB090000
:10062000081AA0612078C00602D42046AFF30080EB
:10063000002608E0D4E901211AF806009047206A54
:10064000401C761C20624E45F4DB2078C0060AD59B
:100650002046AFF3008006E0D4E901213020904726
:10066000206A401C2062381EA7F10107F4DC07E075
:10067000D4E9012118F805009047206A401C206247
:10068000281EA5F10105F3DC2046AFF30080207899
:10069000000602D50220BDE8F0870120FBE700003C
:1006A00001694A1C02610878704700B58FB0CDE936
:1006B00001310021059105497944CDE90310114626
:1006C0006846FFF715FE0FB000BD0000E5FFFFFF15
:1006D000074B70B50D467B44FFF7E7FF04462846FD
:1006E00000F02EF810B14FF0FF3070BD204670BD05
:1006F0005B2E00004FF000020429C0F0128010F0C1
:10070000030C00F02380CCF1040CBCF1020F18BFE5
:1007100000F8012BA8BF20F8022BA1EB0C0100F080
:1007200015B85FEAC17C24BF00F8012B00F8012B4B
:1007300048BF00F8012B704700487047D0020020E6
:10074000007B00F0800070474FF0000200B51346B8
:1007500094469646203922BFA0E80C50A0E80C50E1
:10076000B1F12001BFF4F7AF090728BFA0E80C5092
:1007700048BF0CC05DF804EB890028BF40F8042B8B
:1007800008BF704748BF20F8022B11F0804F18BFF8
:1007900000F8012B7047000000487047D00200208D
:1007A0007546FFF7F9FFAE4605006946534620F04F
:1007B0000700854618B020B5FFF71AFDBDE82040B8
:1007C0004FF000064FF000074FF000084FF0000B0D
:1007D00021F00701AC46ACE8C009ACE8C009ACE8C0
:1007E000C009ACE8C0098D46704710B50446AFF3A8
:1007F00000802046BDE81040FFF7E6BC00BFFEE7E2
:1008000070472DE9F0410246002500260020002314
:100810000024002791F803C00CF00F0591F803C0E5
:100820000CF0100CBCF1000F03D091F802C04CEAA0
:10083000050591F800C0BCF1000F31D0146800200C
:100840002BE04FF0010C0CFA00F3B1F800C00CEAF9
:1008500003069E4220D183004FF00F0C0CFA03F7E1
:10086000BC4305FA03FC4CEA040491F803C0BCF154
:10087000280F06D14FF0010C0CFA00FCC2F814C08E
:100880000AE091F803C0BCF1480F05D14FF0010C0C
:100890000CFA00FCC2F810C0401C0828D1D3146028
:1008A000B1F800C0BCF1FF0F34DD546800202EE029
:1008B00000F1080C4FF0010808FA0CF3B1F800C081
:1008C0000CEA03069E4221D183004FF00F0C0CFA74
:1008D00003F7BC4305FA03FC4CEA040491F803C097
:1008E000BCF1280F05D100F1080C08FA0CF8C2F889
:1008F000148091F803C0BCF1480F07D100F1080C37
:100900004FF0010808FA0CF8C2F81080401C0828C3
:10091000CED35460BDE8F081F0B50A460023002430
:100920000021002500F00046B6F1004F02D11D4E17
:10093000F16901E01B4E7168C0F3034583B200F416
:100940004016B6F5401F08D121F07061154E76684B
:1009500026F07066134F7E6012E000F48016B6F544
:10096000801F06D1032606FA05F4A14341F0706109
:1009700006E0460D360103FA06F6B14341F0706118
:1009800022B1460D360103FA06F6314300F0004667
:10099000B6F1004F02D1034EF16101E0014E7160EA
:1009A000F0BD00000000014000BFFEE710B50020D0
:1009B0000F4908600F48006820F070400D4908603A
:1009C0000846006840F04050086000200A49C1F81D
:1009D0009C01022001F0AEFF0120054908600220C1
:1009E00001F0A8FF00200449C1F8980110BD0000E3
:1009F00098812142000C01400080214208B501216C
:100A0000082000F01BFE4020ADF8000010208DF8FB
:100A1000030003208DF8020069460848FFF7F1FE45
:100A20008020ADF8000069460448FFF7EAFE012087
:100A3000034908600349C1F89C0108BD000C01404E
:100A4000988121420080214210B500200F490860A2
:100A50000F48006820F070400D49086008460068A3
:100A600040F04050086001200A49C1F89C01022072
:100A700001F060FF012005490860022001F05AFFE3
:100A800000200449C1F8980110BD0000988121425E
:100A9000000C01400080214270B505460024174833
:100AA000006820F07040154908600846006840F072
:100AB00000400860002616E000201149086002206E
:100AC00001F038FF01200F49C1F898016006040EBB
:100AD0000B487C38006808B1601CC4B2012001F0EA
:100AE00029FF701CC6B2082EE6DB15B9FFF7ACFF74
:100AF00001E0FFF75BFF204670BD0000000C0140E5
:100B0000988121420080214270B504461548006852
:100B100020F07040134908600846006840F04050DB
:100B20000860002010490860002517E0E0090E4920
:100B3000091D08606006040E022001F0FBFE012082
:100B40000A49C1F89801022001F0F4FE002006498C
:100B50000860022001F0EEFE681CC5B2082DE5DB3E
:100B600070BD0000000C01409881214200802142AC
:100B700010B50F48006820F070400D490860084625
:100B8000006840F04050086001200A4908600A49A6
:100B9000C1F89801042001F0CDFE0020054908604D
:100BA000042001F0C7FE00200349C1F8980110BDE0
:100BB000000C01409C8121420080214210B50F4869
:100BC000006820F070400D4908600846006840F059
:100BD0004050086000200A4908600A49C1F89C0199
:100BE000042001F0A7FE0120054908600549C1F86D
:100BF0009C01042001F09EFE10BD0000000C01408D
:100C0000988121420080214210B5002414480068D8
:100C100020F07040124908600846006840F000402B
:100C2000086001200F49086001F084FE01200E4990
:100C3000C1F8980101F07EFE07E0601CC4B2FA2CF6
:100C400003DDFFF7BBFF012010BD064880380068B8
:100C50000028F2D10349091F086000BFF4E7000033
:100C6000000C01409C8121420080214201280CD1CE
:100C70000121244A11600021234AC2F8A811214A07
:100C800008321160204AC2F8B01102280DD10021AB
:100C90001C4A116001211C4AC2F8A8110021194AFE
:100CA00008321160184AC2F8B01103280DD1002192
:100CB000144A1160144AC2F8A8110121114A0832DD
:100CC00011600021104AC2F8B01104280CD1002193
:100CD0000C4A11600C4AC2F8A8110A4A0832116085
:100CE0000121094AC2F8B01158B90021054A116022
:100CF000054AC2F8A811034A08321160024AC2F834
:100D0000B0117047A40124420000244208B501211B
:100D1000080200F093FC03208DF8020010208DF8EB
:100D200003004001ADF8000069461448FFF769FD73
:100D30004FF48060ADF8000069461048FFF761FD90
:100D40004FF40060ADF8000069460C48FFF759FD0C
:100D50004FF48050ADF8000069460848FFF751FD98
:100D60000020074908600749C1F8A8010449083173
:100D700008600449C1F8B00108BD0000002001402E
:100D8000A40124420000244208B50121102000F0F3
:100D900055FC4FF40050ADF8000003208DF8020020
:100DA00010208DF8030069460348FFF72AFD002054
:100DB0000249086008BD000000100140B401224251
:100DC00070B505466E2405F16E00C4B2B42C00DB8C
:100DD000B4246E2C00DC6E242146044800F053FF3E
:100DE0002146024800F051FF70BD0000000800409D
:100DF0002DE9F0410546884616461C46FFF7FEFDE4
:100E0000FFF7B6FE002101EB4501C8B2FFF77CFEFB
:100E1000FFF7FAFE4046FFF777FEFFF7F5FEFFF714
:100E2000A7FE012101EB4501C8B2FFF76DFEFFF7F8
:100E3000EBFE00270EE0701EB84204DD0120FFF734
:100E40002BFE207003E00020FFF726FE2070641CBC
:100E5000781CC7B2B742EEDBFFF7B0FE0020BDE85A
:100E6000F0812DE9F04106460F4690461C46FFF7FB
:100E70007FFE002101EB4601C8B2FFF745FEFFF7F8
:100E8000C3FE20B1FFF79AFE0120BDE8F08138468D
:100E9000FFF73AFEFFF7B8FE18B1FFF78FFE01200B
:100EA000F3E700250CE02078FFF72EFE641CFFF727
:100EB000ABFE18B1FFF782FE0120E6E7681CC5B261
:100EC0004545F0DBFFF77AFE0020DEE700BFFEE7D6
:100ED00010B5044611480078844201DB0F480478BD
:100EE0000E4800784042A04202DB0C4800784442A1
:100EF0000B48B0F90000012202FB040081B209484E
:100F000000F0C1FE0649B1F90010012202FB0410F5
:100F100005F0DAF90449086010BD00007A000020ED
:100F200078000020000400409000002010B5044626
:100F30000C480078844201DB0A48047809480078AC
:100F40004042A04202DB0748007844420648B0F91C
:100F500000004FF0FF3202FB040081B2034800F0B2
:100F600094FE10BD7A0000207800002000040040AC
:100F700010B504460C480078844201DB0A48047826
:100F8000094800784042A04202DB0748007844420A
:100F90000648B0F900004FF0FF3202FB040081B2B6
:100FA000034800F074FE10BD7A0000207800002095
:100FB0000004004010B504460C480078844201DB70
:100FC0000A480478094800784042A04202DB0748FA
:100FD000007844420648B0F90000012202FB0400F8
:100FE00081B2044800F055FE10BD00007A000020D8
:100FF000780000200004004010B504460C4800783A
:10100000844201DB0A480478094800784042A04243
:1010100002DB0748007844420648B0F9000001228C
:1010200002FB040081B2044800F02FFE10BD000056
:101030007A00002078000020002C014010B5044602
:101040000C480078844201DB0A480478094800789B
:101050004042A04202DB0748007844420648B0F90B
:1010600000004FF0FF3202FB040081B2034800F0A1
:101070000AFE10BD7A00002078000020002C0140FC
:1010800010B504460C480078844201DB0A48047815
:10109000094800784042A04202DB074800784442F9
:1010A0000648B0F900004FF0FF3202FB040081B2A5
:1010B000034800F0ECFD10BD7A000020780000200D
:1010C000002C014010B504460C480078844201DB36
:1010D0000A480478094800784042A04202DB0748E9
:1010E000007844420648B0F90000012202FB0400E7
:1010F00081B2044800F0CDFD10BD00007A00002050
:1011000078000020002C01402DE9FF4F8DB00C46E7
:101110001C9E1A9D0D9820B1012809D0022815D1D6
:101120000DE04FF0000B00200C900B900A900DE0AA
:101130004FF0010B01200C900B900A9006E04FF04D
:10114000FF3B58460C900B900A9000BF00BF1098D0
:1011500020B1012808D0022815D10CE00020099008
:101160000890079006900EE0012009900890801EDC
:101170000790069007E04FF0FF300990089001209B
:101180000790069000BF00BF1B9820B1012807D030
:10119000022814D10BE00027B846B946BA460EE043
:1011A00001274FF0FF384FF0FF39BA4607E04FF004
:1011B000FF374FF001084FF00109BA4600BF00BFEA
:1011C0000BFB04F0099901FB050007FB060000B2C8
:1011D00005900C9800FB04F1089800FB051008FB33
:1011E000060000B204900B986043079901FB0500CC
:1011F00009FB060000B203900A9800FB04F1069870
:1012000000FB05100AFB060000B202900F98B8BB65
:10121000059805F059F8009021480168009804F0FD
:10122000B3FE019005F014F800B20590049805F0A3
:101230004BF800901B480168009804F0A5FE01904F
:1012400005F006F800B20490039805F03DF8009010
:1012500015480168009804F097FE019004F0F8FF2B
:1012600000B20390029805F02FF800900F48016833
:10127000009804F089FE019004F0EAFF00B20290A9
:101280000598FFF725FE0498FFF750FE0398FFF737
:101290006FFE0298FFF78EFE11B0BDE8F08F0000E0
:1012A0007C000020800000208400002088000020B6
:1012B0002DE9FF4F87B00C461D46159E079820B1BB
:1012C000012807D0022814D10BE00027B846B94600
:1012D000BA460EE00127B8464FF0FF394FF0FF3A0B
:1012E00007E04FF0FF37B8464FF001094FF0010A11
:1012F00000BF00BF149820B1012809D0022818D1DE
:101300000EE04FF0000B002006900590049010E0D6
:101310004FF0FF3B012006900590801E049008E0EE
:101320004FF0010B4FF0FF30069005900120049024
:1013300000BF00BF099820B1012808D0022819D1A8
:101340000FE00020039002900190009012E04FF017
:10135000FF30039001200290801E01900120009038
:1013600008E001200390801E029001200190801E61
:10137000009000BF00BF07FB04F1039A02FB0511B8
:101380000BFB061108B2FFF737FE08FB04F1029AC7
:1013900002FB0512069901FB062108B2FFF74EFE7B
:1013A00009FB04F1019A02FB0512059901FB0621D4
:1013B00008B2FFF765FE0AFB04F1009A02FB051272
:1013C000049901FB062108B2FFF77CFE0BB0BDE8D3
:1013D000F08F10B540F2CF2140F2CF7003F02EFE17
:1013E00040F2CF2140F2CF7003F09EFD0020FFF7C6
:1013F0006FFD0020FFF79AFD0020FFF7B9FD0020E8
:10140000FFF7D8FD0020FFF7F7FD0020FFF716FEDD
:101410000020FFF735FE0020FFF754FE4FF47A70EE
:1014200001F062FA4FF47A7001F05EFA4FF4FA704C
:1014300001F05AFA4FF47A7001F056FA4FF47A70CC
:1014400001F052FA10BD704770B5002100230F2241
:10145000C47804B3154C246804F4E064C4F5E06473
:10146000210AC1F10403CA40447804FA03F18478E4
:101470001440214309010E4C0678A155047804F06C
:101480001F050124AC4005786D11AD0005F1E02584
:10149000C5F8004109E0047804F01F050124AC40C0
:1014A000044D0678761145F8264070BD0CED00E03D
:1014B00000E400E080E100E02DE9F04104460E4642
:1014C00017463946304605F05DF8E061E16920686D
:1014D00004F05AFFE060E169606804F055FF80465F
:1014E000216904F051FD206185F0004840462169E2
:1014F00005F016F803D285F00040206105E029468A
:10150000206905F00DF800D22561D4E9070105F046
:1015100039F88046A16804F037FF6061D4E903011F
:1015200004F032FD8046616904F02EFDA061E0699F
:101530002062BDE8F081000010B51A4802681A4820
:1015400001681A48FFF7B8FF164842681648416814
:101550001748FFF7B1FF1648806980F00044134830
:101560008169204604F010FD124908600F4A916914
:101570000F4A906904F008FD0F4908600B4A916911
:101580000B4A906904F0FEFF0C4908600848806926
:1015900080F0004405488169204604F0F3FF0849C3
:1015A000086010BDB8020020C40200209002002094
:1015B000680200207C0000208000002084000020C1
:1015C000880000200F4810490860002048608860AB
:1015D000C8610862C86008614861886148620B4858
:1015E0000B490860002048608860C8610862C860D4
:1015F00008614861886148620649086048608860FF
:1016000070470000CDCCCC3F680200209A99993FEA
:1016100090020020C40200207047000029B1064A51
:10162000D2690243044BDA6104E0034AD26982437F
:10163000014BDA61704700000010024029B1064AF0
:1016400092690243044B9A6104E0034A926982431F
:10165000014B9A61704700000010024030B5002134
:101660000022002400232D4D6D6805F00C0121B1EE
:10167000042905D0082923D105E0294D056022E081
:10168000274D05601FE0254D6D6805F47012234D50
:101690006D6805F48034022505EB92421CB9214D9A
:1016A000554305600BE01D4D6D6805F400351DB117
:1016B0001C4D5543056002E0194D5543056002E09D
:1016C000174D056000BF00BF144D6D6805F0F001B7
:1016D0000909154D6B5C0568DD4045600F4D6D686F
:1016E00005F4E061090A104D6B5C4568DD408560DA
:1016F0000A4D6D6805F46051C90A0B4D6B5C456875
:10170000DD40C560054D6D6805F44041890B074D0E
:101710006B5CC568B5FBF3F5056130BD0010024098
:1017200000127A0000093D001C0000202C0000205F
:10173000704710B500F002F810BD00000CB5002095
:10174000019000903348006840F4803031490860CF
:1017500000BF3048006800F4003000900198401C41
:101760000190009818B90198B0F5A06FF1D12948FF
:10177000006800F4003010B10120009001E000206A
:1017800000900098012843D12348006840F01000E1
:10179000214908600846006820F0030008600846F8
:1017A000006840F0020008601A4840681949486023
:1017B0000846406848600846406840F480604860D9
:1017C0000846406820F47C1048600846406840F4B1
:1017D000E81048600846006840F08070086000BF6C
:1017E0000C48006800F000700028F9D009484068F3
:1017F00020F00300074948600846406840F00200B6
:10180000486000BF0348406800F00C000828F9D188
:101810000CBD00000010024000200240042808D146
:101820004FF0E021096941F004014FF0E02211611D
:1018300007E04FF0E021096921F004014FF0E022B8
:10184000116170477047000010B51348006840F000
:1018500001001149086008464068104908400E49D7
:101860004860084600680E4908400B490860084671
:10187000006820F4802008600846406820F4FE00DC
:1018800048604FF41F008860FFF753FF4FF000607F
:101890000449086010BD0000001002400000FFF87D
:1018A000FFFFF6FE08ED00E010B50121084800F04A
:1018B00075F860B10748008840F400400549088089
:1018C0000121034800F04CF8002000F005F810BD9D
:1018D000000800407600002010B5044644B1002105
:1018E000064800F0D9F90121044800F03CF803E073
:1018F0000021024800F037F810BD00000008004049
:1019000010B50121094800F049F850B101210748FC
:1019100000F026F806480078401C05490870FFF7DB
:101920000BFE0121014800F01BF810BD000C004027
:101930000200002010B504462146024800F013F8CA
:1019400010BD0000000C004021B1028842F080026E
:10195000028004E002884FF67F731A4002807047CD
:10196000CA430282704721B1028842F0010202801C
:1019700004E002884FF6FE731A400280704731B1CE
:10198000B0F8442042F40042A0F8442005E0B0F84A
:101990004420C2F30E02A0F84420704730B502463E
:1019A000002000230024158A05EA0103958905EA31
:1019B000010413B10CB1012000E0002030BD1AB1C8
:1019C00083890B43838102E083898B438381704742
:1019D00070B5002400220023058C4FF6FE763540BA
:1019E0000584028C8388048B4FF68F752C40B51EBE
:1019F0002C400D882C43751E2A400D892A434D88A2
:101A00002A43144DA8420BD0134DA84208D0134DC1
:101A1000A84205D0124DA84202D0124DA84213D1BF
:101A20004FF6F7752A404D892A434FF6FB752A4039
:101A30008D882A434FF6FF652B404FF6FF552B400C
:101A40008D892B43CD892B4383800483CD88858664
:101A5000028470BD002C0140003401400040014070
:101A600000440140004801400A460021018B4FF626
:101A7000F7731940114301837047000070B50024CB
:101A800000220023058C4FF6EF7635400584028C4A
:101A90008388048B48F6FF752C404FF6FF452C4099
:101AA0000D884FF6FF7606EA05252C434FF6DF75C5
:101AB0002A400D8906EA05152A434D8806EA0515D0
:101AC0002A43154DA84202D0144DA8421DD14FF60D
:101AD0007F752A404D894FF6FF7606EA05152A43A1
:101AE0004FF6BF752A408D8806EA05152A434FF642
:101AF000FF352B404FF2FF752B408D8906EA850597
:101B00002B43CD8906EA85052B4383800483CD884A
:101B10000587028470BD0000002C014000340140A4
:101B20000A460021018B4FF2FF7319404FF6FF73F5
:101B300003EA0223194301837047000070B50024B3
:101B400000220023058C4FF6FF6635400584028C89
:101B50008388848B4FF68F752C404FF6FC752C4094
:101B60000D882C434FF6FF552A400D894FF6FF761E
:101B700006EA05252A434D8806EA05252A43154D20
:101B8000A84202D0144DA8421DD14FF2FF752A4041
:101B90004D894FF6FF7606EA05252A434FF6FF35B5
:101BA0002A408D8806EA05252A434EF6FF752B400C
:101BB0004DF6FF752B408D8906EA05152B43CD891F
:101BC00006EA05152B4383808483CD8885870284AC
:101BD00070BD0000002C0140003401400A46002185
:101BE000818B4FF6F77319401143818370470000D2
:101BF00070B5002200230024058C4EF6FF76354098
:101C00000584038C8488828B48F6FF752A404FF642
:101C1000FF452A400D884FF6FF7606EA05252A4340
:101C20004DF6FF752B400D8906EA05352B434D888F
:101C300006EA05352B430B4DA84202D00A4DA842B7
:101C400008D14BF6FF752C408D894FF6FF7606EADA
:101C500085152C4384808283CD88A0F8405003846E
:101C600070BD0000002C0140003401400A460021F4
:101C7000818B4FF2FF7319404FF6FF7303EA022383
:101C80001943818370478186704701877047818738
:101C90007047A0F840107047818470470022028886
:101CA0001D4B98420ED01D4B98420BD0B0F1804F87
:101CB00008D01B4B984205D01A4B984202D01A4BC1
:101CC000984204D14FF68F731A404B881A43174B32
:101CD000984207D0164B984204D04FF6FF431A4063
:101CE000CB881A4302808B8883850B8803850A4B37
:101CF00098420BD0094B984208D00E4B984205D021
:101D00000D4B984202D00D4B984201D10B7A0386BD
:101D10000123838270470000002C01400034014001
:101D20000004004000080040000C0040001000408B
:101D300000140040004001400044014000480140C0
:101D400010B50120144B1B8803F4004313B3134B4D
:101D50005B78412B1BD1114B9B78412B17D10F4B3B
:101D60001B7D422B13D10D4BDB7C422B0FD100226C
:101D7000032107E0094B5B5C094CA354531CDAB206
:101D80004B1CD9B2054B5B5C422BF3D100200023E6
:101D9000014C238010BD000038000020AC00002062
:101DA0009C00002010B540F22551284800F0A3F80F
:101DB000002845D0254800F059F9C4B27B2C05D144
:101DC000012023490870002022490880204800781B
:101DD000012835D11F48008800F4004080BB1D4811
:101DE000008800F4804078B17A2C03D00020194993
:101DF000088025E01748008840F400401549088015
:101E00000020134908701BE0792C06D11148008886
:101E100040F480400F49088012E00E480088C0F36B
:101E20000D000D490C540B480088401C09490880DE
:101E300008460088C0F30D00142801DD002008804A
:101E400040F22551014800F03BF810BD0038014038
:101E50003A00002038000020AC00002010B540F20D
:101E60002551134800F047F800B3114800F0FEF880
:101E7000C4B210480088C82812DA00210E48FFF7C3
:101E80000BFF0C48008810B90120FFF725FD094819
:101E900001880088401C074A10800848445405E027
:101EA0000448008840F400400249088010BD00004A
:101EB000004400407600002000080040A0010020FF
:101EC00010B50022002340F66A14A14200D100BFE1
:101ED0000A1201249440A3B2DC43048010BD21B156
:101EE000828942F40052828104E082894DF6FF73B8
:101EF0001A408281704770B50246002400230025F5
:101F0000002040F66A16B14200D100BFC1F342156D
:101F100001F01F03012606FA03F3012D02D1968971
:101F2000334006E0022D02D1168A334001E0968A42
:101F300033400C12012606FA04F41688344013B11B
:101F40000CB1012000E0002070BDF0B50346002474
:101F500000260025002040F66A17B94200D100BFD4
:101F60001846C1F3421401F01F06012707FA06F5CF
:101F7000012C01D10C3004E0022C01D1103000E022
:101F800014301AB107682F43076002E00768AF43B7
:101F90000760F0BD2DE9F04786B005460E460024E7
:101FA000A24600BFA1460027B08900B100BF2F465E
:101FB0002C8A4CF6FF700440F08804432C82AC89D4
:101FC0004EF6F3100440B088318908437189084304
:101FD0000443AC81AC8A4FF6FF400440B08904430F
:101FE000AC8201A8FFF73AFB1F48874202D1DDF817
:101FF00010A001E0DDF80CA0A88900F4004040B179
:102000000AEBCA0000EB0A1031684900B0FBF1F896
:1020100007E00AEBCA0000EB0A1031688900B0FB48
:10202000F1F86420B8FBF0F004012009642101FB01
:102030001089A88900F4004040B1322000EBC900AB
:10204000B0FBF1F000F00700044308E0322000EBA1
:1020500009106421B0FBF1F000F00F0004432C8163
:1020600006B0BDE8F08700000038014001468888CE
:10207000C0F30800704700BFFEE7490050EAC120E6
:1020800018BF04204A0D18BF40F0010040F2FF7253
:10209000B2EB515F08BF40F00200012808BF0520E5
:1020A00070472DE9F0414F1E00EBC7010446D1E90E
:1020B000000115461E4637F006020DD02A4633466B
:1020C00003F05CFC7F1E04EBC703D3E9002303F09D
:1020D0004DFA37F00602F1D1022F25D0042F13D08C
:1020E000062F18BFBDE8F0812A46334603F046FCB0
:1020F000D4E90A2303F03AFA2A46334603F03EFCB9
:10210000D4E9082303F032FA2A46334603F036FCBA
:10211000D4E9062303F02AFA2A46334603F02EFCBC
:10212000D4E9042303F022FA2A46334603F026FCBE
:10213000D4E9022303F01AFA2A46334603F01EFCC0
:10214000D4E90023BDE8F04103F010BA012204F005
:10215000C0BA03F00BBA002213461046114603F032
:10216000B5BA0000024A0020110704F0B2BA00001C
:1021700001FDFFFF30380A2801D2012070470020FE
:10218000704700BF704700002DE9FE4F06460F461E
:102190000025684601F0DCF9002442E056F82400EE
:1021A00057F82410A0EB010ABAF1000F01DB5146E9
:1021B00001E0CAF10001084604F086F883464FF0BA
:1021C0008F4103F04FFF80465DF82400002104F0AA
:1021D0000BF816D05DF82410404603F043FF82460A
:1021E0004FF07E5104F0CEF9814629F0004A0F48A5
:1021F000416A504604F094F912D20120A0400543F0
:102200000EE00A48C169404604F08AF805D3074841
:10221000016A404604F084F902D20120A04005433F
:10222000641C032CBADB2846BDE8FE8F88670008D3
:102230002DE9F04D8D4F21F0004A86B005460C4641
:10224000BA452ADBAAEB070028430AD08848824512
:1022500001DC1AD1CDB106B02846BDE8F04DFFF73C
:1022600075BF844A844B284603F088FB07460E4618
:10227000824A834B2846214603F080FB06B03A464B
:102280003346BDE8F04D03F071B90120FEF7A8F91F
:1022900006B0BDE8F04DFFF75EBF7A48824542DAEE
:1022A000BAF1795F0BDA2846FFF7E7FE042808BF8A
:1022B000FFF758FF284606B02146BDE8F08D2A46B4
:1022C0000B46104603F05AFB834602466E480E4604
:1022D0000B4606217844FFF7E4FE5A46334603F0E6
:1022E0004DFB804669488A465A4633460421784465
:1022F000FFF7D7FE5A46334603F040FB00223B4629
:1023000003F034F902460B464046514603F0DEF92D
:102310002A46234603F032FB06B02A462346BDE890
:10232000F04D03F023B9284624F0004100223D4639
:102330003B4603F021FC4FF0FF3204F0CAF9064699
:10234000024653480F460B4606217844FFF7A9FE84
:1023500032463B4603F012FBCDE900014D483246C0
:102360003B4604217844FFF79CFE32463B4603F08F
:1023700005FB00222B4603F0F9F883460291304614
:10238000394603F033F8804643480D46504517DC84
:10239000DDE900015A46029B03F098F942462B46BC
:1023A00003F0ECFA42462B4603F0E0F8012204F079
:1023B00090F9304A304B03F0D1FC304A304B4CE0BE
:1023C0004FF0000A52460B46404603F0CFF8CDE9E5
:1023D000031052462B461046194603F0CFFA3246F8
:1023E0003B4603F0C9FBDDE9033203F06FF9064613
:1023F0000F46DDE900015A46029B03F067F9834668
:10240000009101223046394604F063F9194A1A4B0B
:1024100003F0B2FB06460F4601224046294604F06F
:1024200058F95A46009B03F0A9FA32463B4603F09E
:1024300095FC06460F4601225046294604F049F90C
:102440000E4DDFF858802A46434603F095FB32468E
:102450003B4603F091FB2A46434603F08DFB002CDC
:10246000D8BF81F0004106B0BDE8F08D0000F03F1C
:102470000000F07F075C143326A6913C182D4454CD
:10248000FB21F93F0000E03FE0500000F650000063
:102490006A500000805000003333EF3FFB21E93FDA
:1024A0002DE9F84F04460D4621F000400091734994
:1024B000814211DC7249884201DC06D12CB12046F0
:1024C0002946BDE8F84FFFF741BE6E48002DCCBF4E
:1024D0006D496E49BDE8F88F6D49814211DD6D4946
:1024E0008142D8BF4FF0FF366DDD20462946FFF709
:1024F000C4FD042808BFFFF735FE20462946BDE885
:10250000F88F6549654F25F00045814233DD644908
:10251000814219DD002632464FF08043204629468D
:1025200003F024F880468A4601222046294604F01A
:10253000D0F800223B4603F011FC4246534603F01C
:10254000C5F804460D463EE001260022BA463B4649
:102550002046294603F00AF880460F4600225346DB
:102560002046294603F0FAFB42463B4603F0AEF80C
:1025700004460D4627E04B4981421BDDDFF828A1C8
:102580000226002253462046294603F0F7F900228E
:102590003B4602F0EBFF80460F46002253462046A2
:1025A000294603F0DBFB42463B4603F08FF8044626
:1025B0000D4608E0032622462B4600203B4903F047
:1025C00085F804460D4622462B461046194603F070
:1025D000D5F98B46824602460B4603F0CFF90746F3
:1025E0000246334888460B4606217844FFF759FDDA
:1025F00052465B4603F0C2F982462E488B463A4665
:10260000434605217844FFF74CFD3A46434603F024
:10261000B5F902460B46002E504659460CDA02F038
:10262000A5FF22462B4603F0A9F901B022462B460E
:10263000BDE8F04F03F0A0BA02F098FF22462B4607
:1026400003F09CF91C4A7A4402EBC603D3E9002349
:1026500003F084FB22462B4603F080FB174A7A44A2
:1026600002EBC603D3E9002303F086FA009A002A9E
:10267000B8BF81F00041BDE8F88F000000001044B1
:102680000000F07F182D4454FB21F93FFB21F9BFD6
:102690000000DC3F0000203E0000F33F0000F03F60
:1026A0000000E63F008003400000F83F0000F0BF5C
:1026B000824E0000404E0000DE4D0000A64D00009E
:1026C0002DE9F04D9446CCF1000423F000464CEA8D
:1026D0000404524F46EAD4749A46884621F00042D8
:1026E000BC4206D8454240EA050442EAD474BC42E2
:1026F00004D9BDE8F04D6246FFF72BBDAAF1405565
:10270000A5F17F6555EA0C040BD0022404EAAA74F3
:10271000434DDFF810E144EAD87452EA000B04D0CC
:102720000CE0BDE8F04DFFF7BBBE002C14BF012C40
:10273000BDE8F08D022C30D0032C32D056EA0C0BC1
:102740000AD0BE4220D1BA4209D126F0804622F0FA
:1027500080423346114617E000291ADB25E0DFF8F6
:10276000C8B0FB44002C04BFDBE90001BDE8F08DDC
:10277000012C02BFDBE9000181F00041BDE8F08DD2
:10278000022C0AD0032C0CD0BA4212D1B8F1000F9F
:102790000BDA23482549BDE8F08D28462449BDE8D9
:1027A000F08D28467146BDE8F08D1D482149BDE8F1
:1027B000F08D921B12153C2AC4BF19481D490EDC2E
:1027C000BAF1000FBEBF12F13C0F0020014606DB3C
:1027D000624602F07BFF21F00041FFF761FE002C12
:1027E00008BFBDE8F08D012C04BF81F00041BDE8B9
:1027F000F08D114A114B022C07D003F0AFFA2A4694
:10280000BDE8F04D0A4B03F0A9BA03F0A7FA2A4637
:10281000BDE8F04D064B03F0AFB900000000F07FBB
:10282000182D4454FB2109C03A4D0000FB21F9BF8B
:10283000FB210940FB21F93F075C143326A6A13C8C
:102840002DE9F0410446E07800F0C006E07800F0A1
:102850003F05607800F0010098B1EF102846E917B5
:1028600005EB5171C910A5EBC101491C01F0FF082E
:102870000B48006820B10A48414602683846904734
:1028800000BF607800F0080030B10548406818B11A
:10289000B011034A516888470020BDE8F08100006C
:1028A000C400002010B56FF00400FEF7B7FF0A481F
:1028B00000680A49B0FBF1F0094908700846007841
:1028C00000EB4001C1EBC0104FF6FF7101EAC00000
:1028D0000449088010BD00000800002000127A00A2
:1028E00030000020320000200146114A12884A437D
:1028F0004FF0E0235A6100229A611A46126942F0B1
:1029000001021A6100BF4FF0E022106900F00102DD
:102910001AB100F48032002AF5D04FF0E02212699B
:1029200022F001024FF0E0231A6100229A61704701
:10293000320000200146114A12784A434FF0E0234A
:102940005A6100229A611A46126942F001021A6124
:1029500000BF4FF0E022106900F001021AB100F44C
:102960008032002AF5D04FF0E022126922F00102F5
:102970004FF0E0231A6100229A6170473000002076
:1029800038B5044664B120208DF8000028208DF869
:10299000010030208DF8020038208DF8030004E09B
:1029A000A32204216846FDF793FD6A46042140F600
:1029B0009E2002F079FA01F063FE38BD3EB5044670
:1029C00002208DF80000CA208DF80100E3208DF868
:1029D000020009208DF803006A460421682002F0F5
:1029E00063FAA3208DF8000004F0400048B1C02035
:1029F0008DF80100C8208DF80200C2208DF8030078
:102A000006E0A3208DF801008DF802008DF8030088
:102A100004F4C07048B1C4208DF80400CC208DF8B7
:102A20000500C6208DF8060006E0A3208DF80400FE
:102A30008DF805008DF80600A3208DF807008DF8AD
:102A400008008DF809006A460A2140F6A72002F026
:102A50002BFA04F0030018B120208DF8000002E0EA
:102A6000D8208DF800006A46012140F6B62002F019
:102A70001BFA04F0200018B1012000F0ADF802E0CC
:102A8000002000F0A9F804F4C07008B304F48070CA
:102A900060B1B2208DF800008B208DF80100B620C7
:102AA0008DF802009B208DF803000BE0B0208DF81C
:102AB000000080208DF80100B4208DF802009020E5
:102AC0008DF803006A46042140F6A22002F0ECF9DA
:102AD00004F0010020B3F8208DF800006A460121BF
:102AE0004FF40B6002F0E0F9FA21072000F02CFC13
:102AF000072000F0F3FB012000F013FC642000F03D
:102B0000F3FC4FF4FA7000F002FDC821304800F0E9
:102B1000A3FB282000F0BCFB0A2000F0CCFB08E05F
:102B2000D8208DF800006A4601214FF40B6002F0B6
:102B3000BBF904F0020018B1D9208DF8000002E0C2
:102B4000D8208DF800006A46012140F23D7002F065
:102B5000ABF904F0040018B1012000F069F802E0BC
:102B6000002000F065F804F0100018B10120FFF714
:102B700007FF02E00020FFF703FF44F008001549BB
:102B8000488101F07DFD00201249887304F0400067
:102B900018B10846807B801D887304F4C07020B192
:102BA0000C48807B801D0B49887304F0140020B111
:102BB0000848807B10300749887304F0030020B177
:102BC0000448807B001D0349887300203EBD00003F
:102BD00009E3CA02C40000203EB504466CB10EA150
:102BE000D1E900208968CDE9002002916A460921D7
:102BF0004FF4976002F058F93EBD0AA2D2E90010E6
:102C00009268CDE9010200916A4609214FF497606C
:102C100002F04AF9F0E70000B8AAB38DB4980D3578
:102C20005D000000B8AAAAAAB088C3C5C70000000A
:102C300038B5044664B1C0208DF80000C2208DF87C
:102C40000100C4208DF80200C6208DF8030004E0C6
:102C50008B2204216846FDF73BFC6A46042140F6BE
:102C6000982002F021F901F00BFD38BD10B5C82302
:102C70004FF48062024940F6F63001F095FB10BD3A
:102C8000B06700082DE9F04F8DB00746884615461D
:102C90009946DDE9166B0024002030806B49887B63
:102CA0005A4605A901F04CFC18B1601E0DB0BDE8F4
:102CB000F08F6648807A00F01400002867D09DF8F5
:102CC000140000069DF8151040EA01409DF816100A
:102CD00040EA01209DF81710084328609DF818006D
:102CE00000069DF8191040EA01409DF81A1040EACC
:102CF00001209DF81B10084368609DF81C00000629
:102D00009DF81D1040EA01409DF81E1040EA012088
:102D10009DF81F100843A8609DF8200000069DF84C
:102D2000211040EA01409DF8221040EA01209DF860
:102D300023100843E86004F11000C4B228680014AE
:102D40000190686800140290A86800140390E86875
:102D50000014049001984043029901FB010003997B
:102D600001FB0100049901FB010ABAF1706F02DB5B
:102D7000BAF1885F05DD01F083FC00203080401E41
:102D800094E7B6F9000040F48070308000BF2F480F
:102D9000807A00F0400020B305A9601C085C095D42
:102DA00040EA012000B2A8F8000005A9E01C095C77
:102DB00005AAA01C105C41EA002000B2A8F802009D
:102DC00005A9601D095C201D105C41EA002000B2CD
:102DD000A8F80400A01DC4B2B6F9000040F0080035
:102DE00030801A48408900F4C07008B305A9601CFF
:102DF000085C095D40EA012000B2388005A9E01CAA
:102E0000095C05AAA01C105C41EA002000B2788091
:102E100005A9601D095C201D105C41EA002000B27C
:102E2000B880A01DC4B2B6F9000040F07000308038
:102E30000648807A00F0030018B105A90819FFF7C9
:102E4000FFFC484600F046FF00202FE7C4000020AA
:102E500070B588B0064601A801F0FAF8BDF8040084
:102E60000021C90341EA5045C4034448007A00F0F8
:102E7000030056F8200005904048007A00F0040056
:102E800010B10598404205903C48007AC0F3C1005B
:102E900056F8200006903948007A00F0200010B162
:102EA0000698404206903548007AC0F3811056F8E3
:102EB000200007903148008900F4807010B1079815
:102EC000404207900598C117A0FB042301FB043181
:102ED00000FB0510810041EA927005900698C11729
:102EE000A0FB042301FB043100FB0510810041EA33
:102EF000927006900798C117A0FB042301FB0431D0
:102F000000FB0510810041EA927007900598000EC1
:102F10008DF808000598000C8DF809000598000A46
:102F20008DF80A000598C0B28DF80B000698000EC7
:102F30008DF80C000698000C8DF80D000698000A1C
:102F40008DF80E000698C0B28DF80F000798000E9D
:102F50008DF810000798000C8DF811000798000AF2
:102F60008DF812000798C0B28DF8130002AA0C2148
:102F70004FF4257001F098FF08B070BDC400002028
:102F800030B585B0044616A207CA02AB07C3C82CE9
:102F900003DD4FF0FF3005B030BDC82090FBF4F0EA
:102FA000401E85B2280A8DF80000E8B28DF80100B5
:102FB0006A46022140F2162001F076FF10B14FF070
:102FC000FF30E8E702AA0C2140F6C12001F06CFFB7
:102FD00010B14FF0FF30DEE7044884810020DAE7CB
:102FE000FEF2ABC4AAF1DFDFBBAFDFDFC40000201D
:102FF0001FB504464848007A00F0030054F820004A
:1030000001904548007A00F0040010B10198404258
:1030100001904148007AC0F3C10054F820000290AA
:103020003D48007A00F0200010B102984042029022
:103030003948007AC0F3811054F8200003903648D4
:10304000008900F4807010B1039840420390334926
:10305000019880FB0101800F40EA810001902F4917
:10306000029880FB0110820042EA917002902B4985
:10307000039880FB0110820042EA9170039001984E
:10308000000E8DF800000198000C8DF801000198E9
:10309000000A8DF802000198C0B28DF803006A465C
:1030A00004214FF4747001F0FFFE18B14FF0FF30AF
:1030B00004B010BD0298000E8DF800000298000CBC
:1030C0008DF801000298000A8DF802000298C0B243
:1030D0008DF803006A4604214FF4757001F0E4FE98
:1030E00010B14FF0FF30E3E70398000E8DF80000B9
:1030F0000398000C8DF801000398000A8DF8020077
:103100000398C0B28DF803006A4604214FF476702C
:1031100001F0CAFECCE70000C400002009E3CA02A7
:1031200010B586B0044647A00068039046A000682A
:10313000029046A00068019045A00068009004F04D
:10314000030003A9085C8DF8140003A8C4F3C101AF
:10315000405C8DF8150003A8C4F38111405C8DF824
:10316000160004F0030002A9085C8DF8100002A804
:10317000C4F3C101405C8DF8110002A8C4F38111B1
:10318000405C8DF8120005AA032140F2264001F0B0
:103190008BFE18B14FF0FF3006B010BD04AA03211A
:1031A00040F22A4001F080FE10B14FF0FF30F3E70B
:1031B000019805900098049004F0040058B19DF81F
:1031C000140040F001008DF814009DF8100040F04C
:1031D00001008DF8100004F0200058B19DF8150092
:1031E00040F001008DF815009DF8110040F001003D
:1031F0008DF8110004F4807058B19DF8160040F06D
:1032000001008DF816009DF8120040F001008DF8C5
:10321000120005AA03214FF4886001F045FE10B1A9
:103220004FF0FF30B8E704AA032140F2314001F02B
:103230003BFE10B14FF0FF30AEE70648048100209E
:10324000AAE700004CCD6C000CC92C003656760065
:1032500026466600C4000020F8B505460E464FF429
:103260007A7095FBF0F000FB06F4200E8DF800005C
:10327000200C8DF80100200A8DF80200E0B28DF8D4
:1032800003006A4604214FF4AE7001F00DFEF8BD54
:1032900038B50446052094FBF0F084B220128DF876
:1032A0000000E0B28DF801006A4602214FF4AD70D3
:1032B00001F0FAFD38BD38B50446052094FBF0F066
:1032C00084B220128DF80000E0B28DF801006A4649
:1032D00002214FF4AC7001F0E7FD38BD38B504466B
:1032E0000020009004F0010020B19DF8000040F0A3
:1032F0003000009004F0020020B19DF8000040F082
:103300000C00009004F0040020B19DF8000040F093
:10331000030000906A4601214FF4A47001F0C4FD3F
:1033200038BD38B50446012C01DA012402E0042C32
:1033300000DD0424601EC0B200906A46012140F204
:103340004F1001F0B1FD38BD2DE9FC4706460F4690
:1033500006F0070010B1B7F5C86F03DD4FF0FF307E
:10336000BDE8FC87384602F0C7FF8146594902F0A4
:1033700079FE8046684600F045FE9DF80000022870
:1033800006D0042816D0082826D0102848D135E0C9
:103390004FF08D41404602F0F7FF814602F074FF86
:1033A00084B24D49404602F0EFFF814602F06CFFC7
:1033B00085B238E04FF08C41404602F0E5FF81468F
:1033C00002F062FF84B24549404602F0DDFF8146CB
:1033D00002F05AFF85B226E04FF08B41404602F0E2
:1033E000D3FF814602F050FF84B23D49404602F0CF
:1033F000CBFF814602F048FF85B214E04FF08A41CE
:10340000404602F0C1FF814602F03EFF84B23549DA
:10341000404602F0B9FF814602F036FF85B202E075
:103420004FF0FF309CE700BF20128DF80400E0B29F
:103430008DF8050028128DF80600E8B28DF8070017
:1034400006F00100A0B101AA02214FF4EA7001F0D8
:103450002BFD10B14FF0FF3082E70DF10602022183
:103460004FF4927001F020FD10B14FF0FF3077E77C
:1034700006F00200A0B101AA02214FF4EC7001F0A5
:1034800013FD10B14FF0FF306AE70DF10602022183
:103490004FF4947001F008FD10B14FF0FF305FE77A
:1034A00006F00400A0B101AA02214FF4EE7001F071
:1034B000FBFC10B14FF0FF3052E70DF10602022184
:1034C0004FF4967001F0F0FC10B14FF0FF3047E779
:1034D000002045E700004843000040460000C0458A
:1034E000000040450000C04438B50446052094FB68
:1034F000F0F085B228128DF80000E8B28DF80100D6
:103500006A4602214FF4EF7001F0CEFC38BD38B5A9
:103510000446052094FBF0F085B228128DF80000D7
:10352000E8B28DF801006A4602214FF4ED7001F017
:10353000BBFC38BD00BF054A128802F04002002AD9
:10354000F9D0C2B2014B1B1D1A80704700380140F0
:103550007CB5054628494968087801AB04220D214D
:10356000FDF746FC08B107207CBD9DF80700C0F3BD
:1035700001109DF8041001F0E00140EAE1008DF82F
:1035800000009DF80700C0F381009DF8051001F0D0
:10359000E00140EAE1008DF801009DF8070000F02D
:1035A00003009DF8061001F0E00140EAE1008DF80B
:1035B000020000241CE01DF8040018B9002045F8A2
:1035C000240013E00D4845F8240006E055F82400D7
:1035D0000B4902F0D9FE45F824001DF80400401EF6
:1035E000C0B20DF804000028F0D100BF601CC4B2C6
:1035F000032CE0DB0020B7E7400000207B14AE3E48
:103600001D5A843F2DE9F04F87B005460C46914680
:1036100001208DF8100000208DF81100FE4A12687C
:10362000917CFD4A5268107804AB0222FDF719FC28
:1036300020B14FF0FF3007B0BDE8F08FC820FFF792
:1036400053F900208DF81000F34A1268D17BF24A3A
:103650005268107804AB0122FDF703FC10B14FF063
:10366000FF30E8E7EC4A12685179EB4A526810786B
:1036700004AB0122FDF7F5FB10B14FF0FF30DAE7A4
:10368000E54A1268917CE44A5268107804AB012242
:10369000FDF7E7FB10B14FF0FF30CCE7DE4A1268D0
:1036A000D17DDD4A5268107804AB0122FDF7D9FBC9
:1036B00010B14FF0FF30BEE7D74A12681179D64AF1
:1036C0005268107804AB0122FDF7CBFB10B14FF02C
:1036D000FF30B0E70C208DF81000CF4A1268117946
:1036E000CD4A5268107804AB0122FDF7BAFB10B145
:1036F0004FF0FF309FE70F20FFF7F6F8C648806ACB
:10370000407A8DF81000C44A12689178C24A526813
:10371000107804AB0122FDF7A4FB10B14FF0FF308D
:1037200089E7BD48806A007A8DF81000BA4A1268AD
:103730005178B94A5268107804AB0122FDF791FB29
:1037400010B14FF0FF3076E7B9F1000F07D0B24863
:10375000806A807A40F0E0008DF8100004E0AE4806
:10376000806A807A8DF81000AB4A12689179AA4A73
:103770005268107804AB0122FDF773FB10B14FF0D3
:10378000FF3058E7B9F1000F07D0A348806AC07A2C
:1037900040F0E0008DF8100003E0A048C07A8DF8FA
:1037A00010009D4A1268D1799B4A5268107804AB88
:1037B0000122FDF756FB10B14FF0FF303BE7B9F1A6
:1037C000000F02D0C820FFF78FF840208DF81000BE
:1037D000914A12681179904A5268107804AB01221C
:1037E000FDF73FFB10B14FF0FF3024E778208DF854
:1037F0001000894A12685179874A5268107804ABE0
:103800000122FDF72EFB10B14FF0FF3013E7834983
:103810008889FFF769F800208DF810007E4A126849
:1038200051797D4A5268107804AB0122FDF719FBEB
:1038300010B14FF0FF30FEE6774A1268917A764A6F
:103840005268107804AB0222FDF7D2FA10B14FF0A3
:10385000FF30F0E69DF811009DF8101040EA012BB2
:103860000C209BFBF0F0C6B20020A86068602860C6
:10387000A06060602060824665E0674A1268D17A85
:10388000654A5268107804AB0C22FDF7B1FA10B10A
:103890004FF0FF30CFE69DF811009DF8101040EA80
:1038A000012000B2ADF808009DF813009DF8121039
:1038B00040EA012000B2ADF80A009DF815009DF81D
:1038C000141040EA012000B2ADF80C00BDF9081058
:1038D000206808442060BDF90A10606808446060F0
:1038E000BDF90C10A0680844A0609DF817009DF871
:1038F000161040EA012000B2ADF800009DF8190052
:103900009DF8181040EA012000B2ADF802009DF8C1
:103910001B009DF81A1040EA012000B2ADF8040027
:10392000BDF90010286808442860BDF902106868D5
:1039300008446860BDF90410A8680844A8600AF14A
:10394000010000F0FF0AB24597DB3448D0F800C010
:103950002868C117090441EA1041070462460023A0
:103960003846FCF758FC32460023CDE90201FCF74B
:1039700052FC28602948D0F800C06868C1170904C3
:1039800041EA10410704624600233846FCF743FC35
:1039900032460023CDE90201FCF73DFC68601F4878
:1039A000D0F800C0A868C117090441EA1041070413
:1039B000624600233846FCF72EFC32460023CDE950
:1039C0000201FCF728FCA8601448D0F804C0216864
:1039D000C817000440EA11480F0462460023384625
:1039E0004146FCF718FC32460023CDE90201FCF702
:1039F00012FC20600948D0F804C06068C1170904AF
:103A000041EA10410704624600233846FCF703FCF4
:103A10003246002304E000004000002088670008D0
:103A2000CDE90201FCF7F7FB60601148D0F804C053
:103A3000A068C117090441EA104107046246002347
:103A40003846FCF7E8FB32460023CDE90201FCF7DB
:103A5000E2FBA060A068002804DDA068A0F580302B
:103A6000A06003E0A06800F58030A0600020E2E5DF
:103A7000886700082DE9FC5F06460F4600253D4992
:103A80004968087801AB03220D21FDF7B1F910B1A7
:103A90000720BDE8FC9F9DF8040000F01F008DF892
:103AA00004009DF8050000F01F008DF805009DF84A
:103AB000060000F01F008DF80600002456E056F8BE
:103AC000240057F82410A0EB010BBBF1000F01DB21
:103AD000594601E0CBF10001084602F0F5FB4FF03A
:103AE0008F41009002F0BEFA814601A8005D68B3E4
:103AF0002149086802F000FC834659461F4802F03D
:103B0000B1FA804604E01E49404602F03DFC804682
:103B100001A8005D401EC0B201A908550028F2D1DD
:103B20004146484602F09EFA83464FF07E5102F02D
:103B300029FD82462AF0004B0F488169584602F061
:103B4000EFFC12D20120A04005430EE00A480169B3
:103B5000484602F0E5FB05D307484169484602F0B4
:103B6000DFFC02D20120A0400543641C032CA6DB2D
:103B700028468EE7400000208867000800B04C45CA
:103B800054E3853F10B50446204600F00FF8034685
:103B9000E01C00F00BF843EAC00083B2A01D00F067
:103BA00005F843EA801083B2184610BD014691F92A
:103BB0000020002A01DD00201EE091F90020002AEB
:103BC00001DA042018E091F90120002A01DD01202A
:103BD00012E091F90120002A01DA05200CE091F9A8
:103BE0000220002A01DD022006E091F90220002ACD
:103BF00001DA062000E00720704700000EB5FEF74E
:103C000051FEFCF7FBFEFDF7BFF8FDF77FF8FDF76F
:103C1000E0FBFDF7D7FC40F2CF2140F2CF7001F07E
:103C2000FBFA40F2CF2140F2CF7001F097FA4FF447
:103C3000612001F001FC00BF00F094F90028FBD1E5
:103C4000204A111F081F00F07FF801201E4908605C
:103C5000FDF770FE34E01B4A111F081F00F074F8D6
:103C6000FEF76EF8194801F03BFC19490870174837
:103C7000C07B0978884223D11448007B1349C97A54
:103C8000124A927A114CCDE900210290637A227A8D
:103C900061782078FDF738FA2046C0792146897985
:103CA000CDE9001063792279E178A078FDF700FB77
:103CB0002146887BFCF7DAFF2146487BFDF780F838
:103CC000C9E70000C0020020B40122429C0000208D
:103CD000030000207047000070B50446002624F061
:103CE0000104184890F8240008B1002070BD154860
:103CF000807A10B94FF0FF30F8E71248057C807ADF
:103D00002040104908740846007CA04202D04FF0C1
:103D1000FF3600E0002614B90A48007D18B10120E2
:103D200001F01CFB02E0002001F018FB3CB100F0A8
:103D3000A7FC20B1034805744FF0FF30D6E73046AA
:103D4000D4E70000400000202DE9F04F99B0044670
:103D50000D4616464FF07E574FF000084FF0000911
:103D60004FF0000A00BF12A813A918AB0EAACDE9A4
:103D7000001014A916A8FEF785FF0028F3D10E98AD
:103D800002F0A2FA83464FF09D4102F06BF907461C
:103D90000F9802F099FA83464FF09D4102F062F9C4
:103DA0008046109802F090FA83464FF09D4102F051
:103DB00059F98146119802F087FA83464FF09D41E8
:103DC00002F050F9824639464FF0804002F0DCFAAA
:103DD0004946059002F0D8FA414607904FF040401E
:103DE00002F0D2FA5146059002F0CEFA06900799F9
:103DF00002F0CAF8834602F09BF8CDE90801FEF70D
:103E000017FA4FF06632564BCDE90A0101F0B6FDC4
:103E1000CDE90C0101F078FB206049464FF080406D
:103E200002F0B2FA4946029002F0AEFA414604901E
:103E30004FF0404002F0A8FA4146029002F0A4FA86
:103E40000390049902F09EFB83464FF07E5102F0EE
:103E50009BF8059002F06CF8CDE9080139464FF067
:103E6000804002F091FA4146039002F08DFA4946F3
:103E700004904FF0804002F087FA5146039002F020
:103E800083FA8346049902F07FF8059002F050F817
:103E9000CDE90601DDE90823FEF712FC4FF066329A
:103EA0002F4BCDE90A0101F069FDCDE90C0101F0CC
:103EB0002BFB28605146504602F066FA49460490B2
:103EC000484602F061FA41460390404602F05CFA2F
:103ED00039460190384602F057FA0090019902F0F5
:103EE00053F80290039902F04DFB8346049902F0C7
:103EF00049FB059002F01CF8CDE90801514638460F
:103F000002F042FA49460490404602F03DFA03901E
:103F1000049902F039F84FF08041059002F034FA2C
:103F2000834602F005F8CDE90601DDE90823FEF736
:103F3000C7FB4FF066320A4BCDE90A0101F01EFDC6
:103F4000CDE90C0101F0E0FA3060206880F000401B
:103F50002060286880F00040286019B0BDE8F08F2C
:103F600066A64C4070B50024FCF748FD00F024F92B
:103F7000002840D1782000F02FFFC4B20CB10120FE
:103F800070BD7820FFF7A8FEC4B20CB10220F7E79D
:103F9000642000F0D3FEC4B20CB10320F0E7FEF7BA
:103FA00065FEC4B20CB10420EAE71548FFF7EAFD4C
:103FB0000546FFF7B5F8C4B20CB10520E0E740F2C2
:103FC0007310FEF7FBFCC4B20CB10620D8E76420E6
:103FD000FEF7D6FFC4B20CB10720D1E701F074F9A7
:103FE00004460CB10820CBE7012000F0A3FDC4B2C9
:103FF0001CB10920C4E70A20C2E70020C0E7000086
:104000006C00002001461148407A30B1012807D0E9
:10401000022808D003280CD108E0022008700BE029
:104020000420087008E00820087005E010200870DF
:1040300002E04FF0FF30704700BF0448C07C18B169
:1040400008784006000E08700020F4E740000020C9
:1040500001461348407A30B1012808D002280AD01E
:10406000032810D10BE04FF4804008800EE041F6A9
:104070009C7008800AE04FF48050088006E04FF4FE
:104080000060088002E04FF0FF30704700BF044836
:10409000C07C10B10888401008800020F5E70000BF
:1040A0004000002001460248007C08700020704754
:1040B0004000002001460F48007A30B1012807D0A7
:1040C000022809D003280FD10AE0FA2008800EE068
:1040D0004FF4FA7008800AE04FF47A70088006E026
:1040E0004FF4FA60088002E00020088000BF00BFA3
:1040F000002070474000002001460E48007A30B191
:10410000012807D0022808D003280CD108E00A486B
:1041100008600BE00948086008E00948086005E00D
:104120000848086002E04FF0FF30704700BF0020F1
:10413000FBE7000040000020000003430000834232
:10414000333303423333834101461248C07A08288F
:1041500017D2DFE800F01704070A0D101318BC206F
:10416000088013E06220088010E02A2008800DE01B
:10417000142008800AE00A20088007E00520088053
:1041800004E000BF00BF0020088000BF00BF002087
:1041900070470000400000200146064890F82400C7
:1041A00010B14FF0FF3070470248C08908800020EE
:1041B000F9E70000400000201CB580208DF80000C9
:1041C000654A1268917C644A526810786B460122F5
:1041D000FCF747FE10B14FF0FF301CBD6420FEF726
:1041E00083FB00208DF800005B4A1268917C5A4ADC
:1041F000526810786B460122FCF733FE10B14FF085
:10420000FF30EAE7544A1268917D534A52681078A9
:104210006B460622FCF7ECFD10B14FF0FF30DCE7F7
:104220009DF80500C007400F9DF8031001F0010143
:1042300040EA41009DF8011001F0010140EA01044B
:1042400094B1012C03D101214348C17431E0022C07
:1042500003D100214048C1742BE021463FA0FBF769
:10426000FFFF4FF0FF30B8E73B4A1268D1783A4A77
:10427000526810786B460122FCF7BAFD10B14FF07E
:10428000FF30AAE79DF8000000F00F042CB93D486C
:10429000FBF7E6FF4FF0FF309FE7042C06D13AA072
:1042A000FBF7DEFF01212C48C17402E000212A48FF
:1042B000C174FF2128488172FF2027490872FF211D
:1042C00025484172C1724FF6FF71C181FF2101740F
:1042D00081740121017380F82210002180F82310DD
:1042E000417501751630016041608160163880F8B3
:1042F000241080F82510C1844FF4FA6000F062FCAD
:1043000010B14FF0FF3068E7022000F02BFB10B136
:104310004FF0FF3061E72A2000F0CEFC10B14FF0E3
:10432000FF305AE7322000F009FD10B14FF0FF30A6
:1043300053E70020FFF7D0FC10B14FF0FF304CE7FF
:10434000002000F051FB10B14FF0FF3045E7002096
:1043500000F042FD002040E740000020556E7375DC
:1043600070706F7274656420736F667477617265C4
:104370002070726F64756374207265762025642ED8
:104380000A000000A874000848616C662073656E1E
:104390007369746976697479207061727420666FCC
:1043A000756E642E0A0000002DE9F04385B00546C5
:1043B0000E4690469946294890F8250020B14FF0C6
:1043C000FF3005B0BDE8F08316B94FF0FF30F8E7D5
:1043D000002423E0281B102801DD102000E0281B0A
:1043E00087B232193946204600F05EFD10B14FF019
:1043F000FF30E6E701AA3946204600F001F910B186
:104400004FF0FF30DDE730193A4601A9FCF734F8E8
:1044100010B16FF00100D4E7E01984B2AC42D9DBEF
:104420004FEA28208DF8000008F0FF008DF8010009
:104430000A4A1268917E094A526810786B46022235
:10444000FCF70FFD10B14FF0FF30BAE70121034830
:1044500080F82510A0F826900020B2E74000002048
:1044600038B50446282C02DD4FF0FF3038BDDCB9EA
:10447000002000F0EBFB00208DF8000007208DF8F5
:1044800001002E4A1268917C2C4A526810786B46C3
:104490000222FCF7E6FC10B14FF0FF30E6E7002106
:1044A000264801750020E1E7012000F0CFFB202025
:1044B0008DF80000012C06D100208DF801000520A8
:1044C00000F0FAFB17E0052C06DC01208DF8010056
:1044D000052000F0F1FB0EE0142C06DC02208DF824
:1044E00001000A2000F0E8FB05E003208DF8010040
:1044F000142000F0E1FB9DF80100072101EB801082
:10450000C0B28DF801000D4A1268917C0B4A5268C6
:1045100010786B460222FCF7A4FC10B14FF0FF307C
:10452000A4E708210548817200210173012101756A
:104530000020FFF7D1FB002098E70000400000209A
:10454000F8B504460F4616462C4890F8240010B9DA
:104550004FF0FF30F8BD2948807A10B94FF0FF3096
:10456000F8E7264A1268917A244A526810786B4616
:104570000222FCF73DFC10B14FF0FF30EAE79DF856
:1045800001009DF8001040EA0125A54203DA002051
:104590003070401EDEE7194840684088B5EB600F78
:1045A00017DD164A1268517C144A526810786B461F
:1045B0000122FCF71DFC10B14FF0FF30CAE79DF857
:1045C000000000F0100020B100F05AF86FF0010078
:1045D000C0E7E2B2094B1B68D97A084B5B681878D0
:1045E0003B46FCF705FC10B14FF0FF30B2E795FBFE
:1045F000F4F0401E30700020ACE7000040000020C6
:10460000F8B504460D46164616B94FF0FF30F8BD12
:104610001A48807A10B94FF0FF30F8E720128DF871
:104620000000E0B28DF801009DF801002844134914
:1046300049684989884202DD4FF0FF30E7E70F4AB9
:104640001268117E0D4A526810786B460222FCF700
:1046500008FC10B14FF0FF30D9E7EAB2074B1B68F6
:10466000597D064B5B6818783346FCF7C1FB10B1E7
:104670004FF0FF30CBE70020C9E7000040000020EA
:1046800008B57048807A10B94FF0FF3008BD00209F
:1046900000906C4A1268D17B6A4A526810786B4667
:1046A0000122FCF7DEFB10B14FF0FF30EEE7654A68
:1046B00012685179634A526810786B460122FCF700
:1046C000D0FB10B14FF0FF30E0E75E4A126811797D
:1046D0005C4A526810786B460122FCF7C2FB10B1AD
:1046E0004FF0FF30D2E7574890F82400002853D00D
:1046F0000C200090534A12681179524A526810787F
:104700006B460122FCF7ADFB10B14FF0FF30BDE767
:104710003220FEF7E9F8C02000904A48807A00F085
:10472000010020B19DF8000040F020000090454AB3
:1047300012681179434A526810786B460122FCF7DF
:1047400090FB10B14FF0FF30A0E73E48407C10B125
:104750000220009001E0002000903A4A1268D17BCC
:10476000384A526810786B460122FCF77AFB10B188
:104770004FF0FF308AE700200090324A12685179EA
:10478000304A526810786B460122FCF76AFB002819
:1047900055D04FF0FF3079E704200090294A126885
:1047A0001179284A526810786B460122FCF759FBB0
:1047B00010B14FF0FF3069E72248807C20B92148D2
:1047C000807A00F0010010B94020009001E06020E4
:1047D00000901C4A126811791A4A526810786B4688
:1047E0000122FCF73EFB10B14FF0FF304EE73220C4
:1047F000FEF77AF81348407C10B10120009001E0E8
:10480000002000900F4A1268D17B0E4A526810783F
:104810006B460122FCF725FB10B14FF0FF3035E766
:10482000084A12685179074A52681078054B1033CC
:104830000122FCF716FB10B14FF0FF3026E70020F5
:1048400024E70000400000202DE9F04F8DB08346A2
:104850000F4602200C90424890F8240020B100201E
:1048600000F068F9012600E0002603A8FFF722FC0B
:1048700005A8FFF7C7FB01A8FFF766FC02A8FFF732
:104880008BFC374890F80AA004A8FFF70BFC002423
:1048900007E0002239465846FEF7B4FE00B902E0B0
:1048A000641C022CF5DB00BF022C01D1002528E09E
:1048B000002407E0012206A909A8FEF7A3FE00B91B
:1048C00002E0641C022CF5DB00BF022C01D10025A4
:1048D00017E006A93846FDF757FC00F0FF0809A9C4
:1048E0005846FFF7C7F800F0FF090025B9F1000F9F
:1048F00001D145F00105B8F1000F01D145F00205E5
:1049000000BFFF2016490872FF2115484172C1728D
:104910004FF6FF71C181FF21817201740121017382
:10492000BDF80C0000F04EF99DF8140000F01AF8E4
:10493000BDF8040000F0C0F9BDF8080000F0FEF971
:10494000504600F049FA9DF81000FFF7C5F916B17E
:10495000012000F0EFF828460DB0BDE8F08F000010
:104960004000002038B504461E48807A10B94FF048
:10497000FF3038BD022C06D0042C07D0082C08D0FC
:10498000102C0CD108E0002000900BE008200090D3
:1049900008E01020009005E01820009002E04FF0A1
:1049A000FF30E6E700BF0F48407A9DF80010B0EBFB
:1049B000E10F01D10020DCE70A4A1268D179094AE7
:1049C000526810786B460122FCF74BFA10B14FF099
:1049D000FF30CEE79DF80000C11002484172002070
:1049E000C7E700004000002038B504465048807CEE
:1049F000A04201D1002038BD002C46D04C4A12689C
:104A000011794B4A526810786B460122FCF7F0F995
:104A100010B14FF0FF30EEE79DF8000020F02000CD
:104A20000090434A12681179414A526810786B46E7
:104A30000122FCF716FA10B14FF0FF30DBE703203C
:104A4000FDF752FF02200090394890F8220020B173
:104A50009DF8000040F080000090354890F8230059
:104A600020B19DF8000040F030000090304A1268FC
:104A7000117D2F4A526810786B460122FCF7F1F93C
:104A8000002851D04FF0FF30B5E7294A126811795C
:104A9000274A526810786B460122FCF7A9F910B139
:104AA0004FF0FF30A7E72248807A00F0010028B1DC
:104AB0009DF8000040F02000009004E09DF8000008
:104AC00020F0200000901A4A12681179184A5268A2
:104AD00010786B460122FCF7C4F910B14FF0FF309B
:104AE00089E70320FDF700FF114890F8220010B17C
:104AF0008020009001E0002000900D4890F82300F5
:104B000020B19DF8000040F030000090084A126883
:104B1000117D074A526810786B460122FCF7A1F913
:104B200010B14FF0FF3066E701488474002062E75F
:104B30004000002038B50446214890F82400A042E7
:104B400001D1002038BD24B31D4890F8250010B9CC
:104B50004FF0FF30F6E7002000F000FC0020FFF7E8
:104B600043FF1749C88C00F0E9F800200090144971
:104B7000496808786B4601222321FCF772F901216C
:104B80000F4880F82410012000F0E8FBFFF778FDC3
:104B900013E0002000F0E2FB0948007C0090084987
:104BA000496808786B4601222321FCF75AF9002155
:104BB000034880F82410FFF763FD0020C2E70000DF
:104BC0004000002038B504461F48807A10B94FF0E5
:104BD000FF3038BDFA2C09D0B4F5FA7F09D0B4F50E
:104BE0007A7F09D0B4F5FA6F0CD108E0002000906C
:104BF0000BE00820009008E01020009005E018204D
:104C0000009002E04FF0FF30E3E700BF0E48007A6B
:104C10009DF80010B0EBE10F01D10020D9E70A4A5E
:104C200012689179084A526810786B460122FCF7A5
:104C300018F910B14FF0FF30CBE79DF80000C0101D
:104C4000014908720020C4E74000002038B504463E
:104C5000184890F82300A04201D1002038BD14B1BB
:104C60003020009001E0002000901248807C20B1AC
:104C70009DF8000040F0020000900E4890F82200DD
:104C800020B19DF8000040F080000090094A1268B1
:104C9000117D084A526810786B460122FCF7E1F852
:104CA00010B14FF0FF30D9E7024880F823400020D0
:104CB000D4E700004000002038B504461E48807A42
:104CC00010B94FF0FF3038BDBC2C02DB0120009042
:104CD00015E0622C02DB0220009010E02A2C02DB9F
:104CE000032000900BE0142C02DB0420009006E06F
:104CF0000A2C02DB0520009001E0062000900E48FF
:104D0000C07A9DF80010884201D10020DBE70A4AF2
:104D100012689178084A526810786B460122FCF7B5
:104D2000A0F810B14FF0FF30CDE79DF80010024819
:104D3000C1720020C7E700004000002038B50446DB
:104D40002448807A10B94FF0FF3038BD214890F8E0
:104D5000240010B14FF0FF30F7E71E48007D50B13E
:104D600034B1282C04DCE0B2FFF77AFB0020ECE73A
:104D70000020FFF775FB042C01DA042404E0B4F5ED
:104D80007A7F01DD4FF47A744FF47A7090FBF4F07F
:104D9000401EC0B200900F4A126851780D4A526806
:104DA00010786B460122FCF75CF810B14FF0FF3031
:104DB000CBE79DF80000401C4FF47A7191FBF0F0B6
:104DC00081B20448C1810146C9894810FFF774FFC8
:104DD0000020BAE74000002038B5044604F0700017
:104DE00010B10120009005E014B10020009001E016
:104DF000402000902B4A1268917C2A4A5268107811
:104E00006B460122FCF72DF820B100212548817264
:104E1000481E38BD9DF8000020F040012148017374
:104E20000020009004F0400020B99DF8000040F000
:104E30000400009004F0200020B99DF8000040F02C
:104E40000200009004F0100020B99DF8000040F02E
:104E50000100009004F0080020B99DF8000040F027
:104E6000380000900F4A1268D17C0E4A52681078C0
:104E70006B460122FBF7F5FF20B100210948817242
:104E8000481EC6E724B1082C02D00020FFF7DEFE42
:104E900004488472002101753220FDF725FD0020B1
:104EA000B7E7000040000020F8B504460D4616465E
:104EB00016B94FF0FF30F8BD1A48807A10B94FF09C
:104EC000FF30F8E720128DF80000E0B28DF8010005
:104ED0009DF801002844134949684989884202DD48
:104EE0004FF0FF30E7E70F4A1268117E0D4A526813
:104EF00010786B460222FBF7B4FF10B14FF0FF3081
:104F0000D9E7EAB2074B1B68597D064B5B681878F6
:104F10003346FBF7A6FF10B14FF0FF30CBE7002080
:104F2000C9E700004000002030B589B005460C46B6
:104F30000121C802FCF782FB01214020FCF77EFB27
:104F400001210846FCF77AFB01213948FBF7E4FC14
:104F50004FF40070ADF8200003208DF822001820D7
:104F60008DF8230008A93348FBF74BFC4FF4006091
:104F7000ADF8200008A92F48FBF743FC4FF4005080
:104F8000ADF8200008A92B48FBF73BFC4FF480400C
:104F9000ADF8200008A92748FBF733FC0020ADF846
:104FA00016008DF81C00ADF81850ADF81440ADF89F
:104FB0001A0005A92048FCF771FE7020ADF8040026
:104FC0000120ADF806000220ADF80C000020ADF87D
:104FD0000A0001A91848FCF7FBFC01A91648FCF7D8
:104FE0004DFD01A91448FCF7A9FD01A91248FCF7E1
:104FF000FFFD08211048FCF737FD08210E48FCF79B
:105000008FFD08210C48FCF7E9FD08210A48FCF750
:105010002DFE01210848FCF797FC01210648FCF70A
:10502000A2FC01210448FCF7AAFC09B030BD000035
:10503000C000160000180140002C014030B589B0B6
:1050400005460C4601210220FCF7E8FA0121042064
:10505000FCF7F4FA01210820FCF7F0FA01210846D8
:10506000FCF7ECFA4020ADF8200003208DF8220078
:1050700018208DF8230008A93548FBF7C2FB8020D3
:10508000ADF8200003208DF8220018208DF82300B1
:1050900008A92F48FBF7B5FB0120ADF8200003203D
:1050A0008DF8220018208DF8230008A92948FBF765
:1050B000A8FB0220ADF8200003208DF82200182064
:1050C0008DF8230008A92348FBF79BFB0020ADF8CF
:1050D00016008DF81C00ADF81850ADF81440ADF86E
:1050E0001A0005A91C48FCF7D9FD7020ADF8040092
:1050F0000120ADF806000220ADF80C000020ADF84C
:105100000A0001A91448FCF763FC01A91248FCF746
:10511000B5FC01A91048FCF711FD01A90E48FCF7E8
:1051200067FD08210C48FCF79FFC08210A48FCF7A2
:10513000F7FC08210848FCF751FD08210648FCF758
:1051400095FD01210448FCF70EFC09B030BD0000BC
:1051500000080140000C01400004004030B589B057
:1051600005460C4601210420FCF758FA01212020B5
:10517000FCF764FA01210846FCF760FA01210803F4
:10518000FBF7CAFB4FF48050ADF8140003208DF8F4
:10519000160018208DF8170005A91D48FBF731FBF4
:1051A0004FF40050ADF8140005A91948FBF729FB8E
:1051B0000020ADF81A00ADF81C50ADF81840ADF85D
:1051C0001E0006A91348FCF769FD7020ADF8040025
:1051D0000120ADF806000220ADF80C000020ADF86B
:1051E0000A0001A90B48FCF7F3FB01A90948FCF7E9
:1051F00045FC08210748FCF737FC08210548FCF767
:105200008FFC01210348FCF7AEFB09B030BD000064
:10521000001401400008004030B589B005460C4636
:1052200001210420FCF70AFA01210820FCF7F6F915
:1052300001210846FCF702FA0120ADF81000032016
:105240008DF8120018208DF8130004A91C48FBF7F4
:10525000D8FA0020ADF81A00ADF81C50ADF818408F
:10526000ADF81E0006A91748FCF718FD7020ADF830
:1052700000000120ADF802000220ADF80800002077
:10528000ADF8060069460F48FCF7A2FB08210D485F
:10529000FCF7EAFB012211460A48FCF790FB32209A
:1052A0008DF8140001208DF8170002208DF81500EC
:1052B0008DF8160005A8FCF7C7F809B030BD00004E
:1052C00000080140000C004070B588B002A905A894
:1052D000FFF7BAFA0446032C3ED101A8FEF70CFFF3
:1052E000059800F0F1FF0646019901F04DF80546DA
:1052F00000F0AEFF0590069800F0E6FF0646019923
:1053000001F042F8054600F0A3FF0690079800F070
:10531000DBFF0646019901F037F8054600F098FFDB
:10532000079005A8FDF764FE6846FEF791FEBDF8FC
:105330000010029848430290BDF8001003984843BB
:105340000390BDF8001004984843049002A8FDF7AC
:105350007FFD002008B070BD0120FBE738B5044692
:10536000214890F82400C0B114B10220009001E05F
:10537000002000901C4A1268D17B1B4A52681078AA
:105380006B460122FBF76DFD10B14FF0FF3038BDC9
:105390009DF800101448417423E01348807A10B936
:1053A0004FF0FF30F3E724B10F48407C08B10020F4
:1053B000EDE714B10120009001E0002000900A4ABE
:1053C0001268D17B084A526810786B460122FBF7BD
:1053D00048FD10B14FF0FF30D9E79DF800100248AA
:1053E00041740020D3E70000400000202DE9F04187
:1053F00006460F4600F0CCFB041E0D4618BF0120E8
:10540000284320F00040C0F17F6000F1E040C00F71
:105410000ED0301C18BF0120384320F00040C0F1EE
:105420007F6000F1E040C00F04BF0120FBF7D8F817
:1054300020462946BDE8F08110B586B0044601211A
:1054400044F20400FCF7FAF84FF40070ADF81400D1
:1054500003208DF8160018208DF8170005A91E48A6
:10546000FBF7CFF94FF48060ADF8140004208DF8FD
:10547000170005A91848FBF7C4F925208DF800008E
:1054800001208DF801008DF802008DF803006846B8
:10549000FBF7DAFF01944FF48050ADF808000020CC
:1054A000ADF80A004FF48060ADF80C000020ADF8B4
:1054B00010000C20ADF80E0001A90848FCF76AFDA9
:1054C000012240F225510548FCF73FFD0121034828
:1054D000FCF705FD06B010BD000801400038014092
:1054E00030B503460022002103E0585C0244481C0A
:1054F000C1B20F29F9DB02F25140782490FBF4F598
:1055000004FB1502D0B230BD21F00042A2F160527E
:10551000B2F5801F01F0004328BFD2F17F6C0BD998
:105520005FEA001C43EAC20242EB507018BF7047AA
:1055300028BF20F001007047B2F5801FBCBF18469D
:1055400070474FEA410C1CF5001F02D2084600F0DC
:10555000E2BF70B500F0BCFA00000089FFF7F6BFAB
:105560004FF00040A0F580007047000010B591EAB0
:10557000030F48BF83F0004300F1F883841A71EBF6
:10558000030C05D2121943EB0C03001B61EB0C0159
:10559000DFF824E14FEA1154A4EB135C1EEA430F39
:1055A00018BF9EEA445F73D023EA0E03DCF1200E9D
:1055B00021EA045143F4801332D322FA0CFE10EB9B
:1055C0000E0023FA0CFE41EB0E01CCF1200E03FA83
:1055D0000EFE10EB0E0051F10001B1F5801FCCF171
:1055E000200E32D201EB045112FA0EF2BDE8104047
:1055F00058BF7047401C38BF5FEA420218BF70476F
:10560000002814BF20F0010041F100014FEA4103DE
:1056100013F5001F38BF7047A1F1C04100F0A6BAD2
:10562000012A43EB0302ACF1200CDCF11F0E32BF68
:105630004FF0000E23FA0CF310EB030041EB045182
:10564000B4EB115FD0D0A1EB045101F580114908F2
:105650005FEA300001EB04510ED350F1000038BF77
:1056600012FA0EFE08D1BDE81040C9E7401C38BF51
:105670005FEA4202CAD1C3E7BDE810404FEA4103E6
:1056800013F5001F38BF7047A1F1C04100F06EBA9A
:105690009EEA445F08D011EA5E0FBDE8104004BFE7
:1056A00001F0004100207047BDE8104070B500F0E7
:1056B0000FFA00BF64FBBE3E0000E0FF02494FF05E
:1056C000000000F0D4BF00BF0000F87F2DE9C0410A
:1056D00030B4DFF8A0C23CEA111418BF3CEA13143E
:1056E00000F0EC8081EA03051CEA111444EAD57449
:1056F00018BF1CEA131500F0C780A4EB05044FF097
:10570000004545EAC12145EAC32341EA505143EA35
:10571000525304F17F74994204F500344FEAC020DB
:105720004FEAC22208BF904200F09C804FEA136506
:105730000FF24016765D4FEA134506FB05F7C7F1F9
:10574000807706FB07F74FEAD737A7FB0368764257
:10575000C8F58038A7FB06CE38BFA8F1010807FBC3
:1057600008E64FF0000EA6FB028CE6FB03CEDCF150
:10577000000CCEF1004E38BFAEF1010EA6FB0C5866
:105780004FF000074FF00005E6FB0E87A1FB08C6AF
:10579000A0FB07CE16EB0E0645F10005E1FB076501
:1057A00015F1E04E7EBFA4F580345FEA46066D41F8
:1057B00016F1800745F100054FEA17274FEA066604
:1057C00047EA0567A6F1DE46B6F1805F4FEA152588
:1057D0001FD9384624F0010C05EBC471BCF1FE6FF3
:1057E00001EB0C1102D8F0BCBDE8008124425CBF83
:1057F00001F5801E9EEAC47F02D4F0BCBDE80081A2
:10580000244238D4F0BCA1F1C041BDE8004100F011
:10581000ADB94FEAD22242EA43524FEAD323A7FB63
:1058200002864FEAD02040EA415007FB03661EEA99
:105830000E0F4FEAD12105FB026658BFA6EB0056BA
:10584000B6EB00564FEA520E4EEAC37E18EB0E0E30
:1058500056EB530EBDD518EB02085E417F1C55F187
:105860000005B6E74FF480154FF000074FF0000633
:105870004FF00008ADE7F0BC4FF0000001F1C0416F
:1058800001F00041BDE8008111EA0C1F0CEA13157C
:1058900000D00CE013EA0C1F00F025804FF0000050
:1058A000F0BC81EA030101F00041BDE80081F0BCD9
:1058B000BDE8004181EA030100F058B9F0BCBDE841
:1058C000004170B500F004F9097EFC3E00F007B815
:1058D00081EA03014FF0000001F00041704781EAC6
:1058E000030100F043B9F0BCBDE800414FF00000F7
:1058F00021497047FFFDFBF9F7F5F4F2F0EEEDEB0F
:10590000E9E8E6E4E3E1E0DEDDDBDAD8D7D5D4D3BD
:10591000D1D0CFCDCCCBCAC8C7C6C5C4C2C1C0BF09
:10592000BEBDBCBBBAB9B8B7B6B5B4B3B2B1B0AF0F
:10593000AEADACABAAA9A8A8A7A6A5A4A3A3A2A1F3
:10594000A09F9F9E9D9C9C9B9A99999897979695AE
:1059500095949393929191908F8F8E8E8D8C8C8B4A
:105960008B8A8989888887878685858484838382D2
:10597000828181800000FF070000F87FDFF848C1C6
:1059800070B51CEA111E1EBF1CEA13159EEA0C0F0F
:1059900095EA0C0F00F06F8081EA030423EA4C13B0
:1059A0004EEAD47E21EA4C1141F4801143F4801375
:1059B000AE44A1FB024CA0FB0365AEF17F7E36191D
:1059C00055EB0C05A1FB034C4CF10003A0FB021CA2
:1059D00016EB0C06654153F10003094218BF46F06F
:1059E000010613F4007F0BD14FEA03314FEA053073
:1059F000340341EA155140EA16506FF003020AE001
:105A00004FEAC3214FEAC520F40241EA555140EA6A
:105A100056506FF0020202EB2E4201EB025585EA6E
:105A2000CE710AD05FEA440C18BF24F0004450F154
:105A3000000041F1000120EAD47040F2FE7C624592
:105A400000D270BDA84214BF4FF080444FF04044D4
:105A5000002E08BF0024BEF1806FA8BFA1F1C04195
:105A6000BDE8704080F282804FF0000001F1C0413B
:105A700001F0004170479EEA0C0F0CEA131518BFA5
:105A800095EA0C0F06D04FF0000081EA030E0EF0ED
:105A9000004170BD00F01CF88900013E00F007B81D
:105AA00000F009B84FEA430C5FEA5C5C08D081EA79
:105AB000030100F05BB84FEA410C5FEA5C5CF6D191
:105AC0004FF00000014970470000FF070000F87F19
:105AD0000EF1020E2EF0030E5EF8046B364205D472
