:020000040800F2
:10000000E0150020D5010008AB180008A909000878
:100010001D130008FD070008BF25000800000000B0
:10002000000000000000000000000000351C000877
:1000300001080008000000001D1B0008491D000801
:10004000EF010008EF010008EF010008EF010008D0
:10005000EF010008EF010008EF010008EF010008C0
:10006000EF010008EF010008EF010008EF010008B0
:10007000EF010008EF010008EF010008EF010008A0
:10008000EF010008EF010008EF010008EF01000890
:10009000EF010008EF010008EF010008EF01000880
:1000A000EF010008EF010008EF010008EF01000870
:1000B000EF010008EF010008AD1D0008EF01000886
:1000C000EF010008EF010008EF010008EF01000850
:1000D000EF010008A522000879230008EF010008BD
:1000E000EF010008EF010008EF010008EF01000830
:1000F000EF010008EF010008EF010008EF01000820
:10010000EF010008EF010008051E0008EF010008DC
:10011000EF010008EF010008EF010008EF010008FF
:10012000EF010008EF010008EF010008EF010008EF
:1001300000F002F800F03FF80AA090E8000C8244BA
:100140008344AAF10107DA4501D100F034F8AFF297
:10015000090EBAE80F0013F0010F18BFFB1A43F0A5
:10016000010318472C7900004C790000103A24BF95
:1001700078C878C1FAD8520724BF30C830C144BF0C
:1001800004680C607047000000230024002500264E
:10019000103A28BF78C1FBD8520728BF30C148BFEA
:1001A0000B607047642900F06780002070471FB51E
:1001B0001FBD10B510BD00F0F3FA1146FFF7F7FFB1
:1001C00003F0C0FF00F011FB03B4FFF7F2FF03BC24
:1001D00002F07BFA0948804709480047FEE7FEE73E
:1001E000FEE7FEE7FEE7FEE7FEE7FEE7FEE7FEE7E7
:1001F00004480549054A064B704700004D1D00089C
:1002000031010008E0030020E0150020E005002097
:10021000E0050020704710B54C1084EA530404D563
:100220004042C1F1000138BF491E1B4204D5524271
:10023000C3F1000338BF5B1E00F056F914F0804F85
:1002400004D04042C1F1000138BF491E14F0004FF4
:1002500004D05242C3F1000338BF5B1E10BD000042
:100260000FB4044910B503AA029800F031FA10BC8B
:100270005DF814FB340000202DE9F041064600240F
:1002800010687529314616A510D0AFF300800028FC
:1002900002DA404213A507E031688A0701D512A5AA
:1002A00002E0490704D511A5012401E0AFF3008065
:1002B00000210A2206F1240709E0B0FBF2FCB0FBA2
:1002C000F2F302FB1C00303078541846491C002819
:1002D000F3D123462A463046BDE8F04100F086B906
:1002E000000000002D0000002B0000002000000096
:1002F0002DE9F05F894604464FF0000ADFF874B13B
:10030000FB44C0F820A02046E1688847002874D04C
:10031000252806D0D4E901219047206A401C20629C
:10032000F1E700265F462046E16888472028054619
:1003300007DB312D05D2781910F8200C08B10643DF
:10034000F1E7B00701D526F00406C4F81CA0002789
:10035000C4F818A02A2D09D0284602F0AFF938B306
:1003600004EB8708303DC8F8185019E059F8041B11
:10037000204604EB87029161E1688847012F05461A
:1003800018D1E069002820DA26F020061DE0D8F810
:10039000180000EB800005EB40003038C8F818006A
:1003A0002046E1688847054602F088F90028EED12A
:1003B000012F0AD02E2D08D12046E16888477F1CE6
:1003C0000546022F46F02006C4DBA069002803DAA8
:1003D000404246F00106A061F00701D026F0100669
:1003E0006C2D0BD0682D09D04C2D39D06A2D35D00D
:1003F000742D35D07A2D33D016E038E0E1682F46E1
:1004000020468847B842054609D16C2F26D04FF4C4
:100410008060E168064320468847054604E06C2F6B
:100420001AD04FF4807006430DB3A5F1410019288E
:1004300002D8203546F400664A4629462046266002
:100440004E46FFF7AFFE80B101280BD0F61D26F017
:10045000070000F1080956E74020E4E78020D8E7CC
:100460000020D6E706F104094DE7284652E7206A46
:10047000BDE8F09F3676000040EA010310B59B0707
:100480000FD1042A0DD310C808C9121F9C42F8D0FE
:1004900020BA19BA884201D9012010BD4FF0FF30AF
:1004A00010BD1AB1D30703D0521C07E0002010BDC5
:1004B00010F8013B11F8014B1B1B07D110F8013B51
:1004C00011F8014B1B1B01D1921EF1D1184610BD32
:1004D00002F0FF0343EA032242EA024200F00CB9B1
:1004E000704770477047704753EA020C00F069800C
:1004F0002DE9F04B4FF00006002B1FBFB3FA83F538
:1005000003FA05F424FA05F65E4012BF1643B2FA68
:1005100082F502FA05F4C5F120051EBF22FA05FC9A
:1005200044EA0C04203556EA044C4FEA144418BF40
:10053000641C4FF000084FF00009904271EB030C6F
:1005400039D3002919BFB1FA81F701FA07F6B0FAD9
:1005500080F700FA07F6C7F120071EBF20FA07FC54
:1005600046EA0C062037B6FBF4FCA7EB0507103F64
:1005700007F01F0BCBF120060CFA0BFB2CFA06F64A
:1005800044BFB3460026202FA4BF5E464FF0000BA9
:100590005BEA060C08BF4FF0010B19EB0B09ABFB34
:1005A000027C48EB0608C01B06FB02CC0BFB03CC0D
:1005B00071EB0C01C1E70B46024641464846BDE8D7
:1005C000F08B13B54FF000004FF00001AFF3008047
:1005D000BDE81C40704710B500F0AEF8006810BDD3
:1005E00010B5044600F0A8F8046010BD2DE9F047EE
:1005F0000D4699469246044600F124080168880693
:1006000004D5E06921F01001216000E00120A8423A
:1006100001DD471B00E00027A1697A1902EB090000
:10062000081AA0612078C00602D42046AFF30080EB
:10063000002608E0D4E901211AF806009047206A54
:10064000401C761C20624E45F4DB2078C0060AD59B
:100650002046AFF3008006E0D4E901213020904726
:10066000206A401C2062381EA7F10107F4DC07E075
:10067000D4E9012118F805009047206A401C206247
:10068000281EA5F10105F3DC2046AFF30080207899
:10069000000602D50220BDE8F0870120FBE700003C
:1006A00001694A1C02610878704700B58FB0CDE936
:1006B00001310021059105497944CDE90310114626
:1006C0006846FFF715FE0FB000BD0000E5FFFFFF15
:1006D000074B70B50D467B44FFF7E7FF04462846FD
:1006E00000F02EF810B14FF0FF3070BD204670BD05
:1006F000A33300004FF000020429C0F0128010F074
:10070000030C00F02380CCF1040CBCF1020F18BFE5
:1007100000F8012BA8BF20F8022BA1EB0C0100F080
:1007200015B85FEAC17C24BF00F8012B00F8012B4B
:1007300048BF00F8012B7047004870477C03002039
:10074000007B00F0800070474FF0000200B51346B8
:1007500094469646203922BFA0E80C50A0E80C50E1
:10076000B1F12001BFF4F7AF090728BFA0E80C5092
:1007700048BF0CC05DF804EB890028BF40F8042B8B
:1007800008BF704748BF20F8022B11F0804F18BFF8
:1007900000F8012B70470000004870477C030020E0
:1007A0007546FFF7F9FFAE4605006946534620F04F
:1007B0000700854618B020B5FFF71AFDBDE82040B8
:1007C0004FF000064FF000074FF000084FF0000B0D
:1007D00021F00701AC46ACE8C009ACE8C009ACE8C0
:1007E000C009ACE8C0098D46704710B50446AFF3A8
:1007F00000802046BDE81040FFF7E6BC00BFFEE7E2
:1008000070472DE9F0410246002500260020002314
:100810000024002791F803C00CF00F0591F803C0E5
:100820000CF0100CBCF1000F03D091F802C04CEAA0
:10083000050591F800C0BCF1000F31D0146800200C
:100840002BE04FF0010C0CFA00F3B1F800C00CEAF9
:1008500003069E4220D183004FF00F0C0CFA03F7E1
:10086000BC4305FA03FC4CEA040491F803C0BCF154
:10087000280F06D14FF0010C0CFA00FCC2F814C08E
:100880000AE091F803C0BCF1480F05D14FF0010C0C
:100890000CFA00FCC2F810C0401C0828D1D3146028
:1008A000B1F800C0BCF1FF0F34DD546800202EE029
:1008B00000F1080C4FF0010808FA0CF3B1F800C081
:1008C0000CEA03069E4221D183004FF00F0C0CFA74
:1008D00003F7BC4305FA03FC4CEA040491F803C097
:1008E000BCF1280F05D100F1080C08FA0CF8C2F889
:1008F000148091F803C0BCF1480F07D100F1080C37
:100900004FF0010808FA0CF8C2F81080401C0828C3
:10091000CED35460BDE8F081F0B50A460023002430
:100920000021002500F00046B6F1004F02D11D4E17
:10093000F16901E01B4E7168C0F3034583B200F416
:100940004016B6F5401F08D121F07061154E76684B
:1009500026F07066134F7E6012E000F48016B6F544
:10096000801F06D1032606FA05F4A14341F0706109
:1009700006E0460D360103FA06F6B14341F0706118
:1009800022B1460D360103FA06F6314300F0004667
:10099000B6F1004F02D1034EF16101E0014E7160EA
:1009A000F0BD00000000014000BFFEE710B50020D0
:1009B0000F4908600F48006820F070400D4908603A
:1009C0000846006840F04050086000200A49C1F81D
:1009D0009C01022002F052FA012005490860022021
:1009E00002F04CFA00200449C1F8980110BD000043
:1009F00098812142000C01400080214208B501216C
:100A0000082001F09DF84020ADF8000010208DF87E
:100A1000030003208DF8020069460848FFF7F1FE45
:100A20008020ADF8000069460448FFF7EAFE012087
:100A3000034908600349C1F89C0108BD000C01404E
:100A4000988121420080214210B500200F490860A2
:100A50000F48006820F070400D49086008460068A3
:100A600040F04050086001200A49C1F89C01022072
:100A700002F004FA012005490860022002F0FEF9A4
:100A800000200449C1F8980110BD0000988121425E
:100A9000000C01400080214270B505460024174833
:100AA000006820F07040154908600846006840F072
:100AB00000400860002616E000201149086002206E
:100AC00002F0DCF901200F49C1F898016006040E1C
:100AD0000B487C38006808B1601CC4B2012002F0E9
:100AE000CDF9701CC6B2082EE6DB15B9FFF7ACFFD6
:100AF00001E0FFF75BFF204670BD0000000C0140E5
:100B0000988121420080214270B504461548006852
:100B100020F07040134908600846006840F04050DB
:100B20000860002010490860002517E0E0090E4920
:100B3000091D08606006040E022002F09FF90120E2
:100B40000A49C1F89801022002F098F900200649EC
:100B50000860022002F092F9681CC5B2082DE5DB9E
:100B600070BD0000000C01409881214200802142AC
:100B700010B50F48006820F070400D490860084625
:100B8000006840F04050086001200A4908600A49A6
:100B9000C1F89801042002F071F9002005490860AD
:100BA000042002F06BF900200349C1F8980110BD40
:100BB000000C01409C8121420080214210B50F4869
:100BC000006820F070400D4908600846006840F059
:100BD0004050086000200A4908600A49C1F89C0199
:100BE000042002F04BF90120054908600549C1F8CD
:100BF0009C01042002F042F910BD0000000C0140ED
:100C0000988121420080214210B5002414480068D8
:100C100020F07040124908600846006840F000402B
:100C2000086001200F49086002F028F901200E49F0
:100C3000C1F8980102F022F907E0601CC4B2FA2C56
:100C400003DDFFF7BBFF012010BD064880380068B8
:100C50000028F2D10349091F086000BFF4E7000033
:100C6000000C01409C8121420080214201280CD1CE
:100C70000121244A11600021234AC2F8A811214A07
:100C800008321160204AC2F8B01102280DD10021AB
:100C90001C4A116001211C4AC2F8A8110021194AFE
:100CA00008321160184AC2F8B01103280DD1002192
:100CB000144A1160144AC2F8A8110121114A0832DD
:100CC00011600021104AC2F8B01104280CD1002193
:100CD0000C4A11600C4AC2F8A8110A4A0832116085
:100CE0000121094AC2F8B01158B90021054A116022
:100CF000054AC2F8A811034A08321160024AC2F834
:100D0000B0117047A40124420000244208B501211B
:100D1000080200F015FF03208DF8020010208DF866
:100D200003004001ADF8000069461448FFF769FD73
:100D30004FF48060ADF8000069461048FFF761FD90
:100D40004FF40060ADF8000069460C48FFF759FD0C
:100D50004FF48050ADF8000069460848FFF751FD98
:100D60000020074908600749C1F8A8010449083173
:100D700008600449C1F8B00108BD0000002001402E
:100D8000A40124420000244208B50121102000F0F3
:100D9000D7FE4FF40050ADF8000003208DF802009C
:100DA00010208DF8030069460348FFF72AFD002054
:100DB0000249086008BD000000100140B401224251
:100DC00070B505466E2405F16E00C4B2B42C00DB8C
:100DD000B4246E2C00DC6E242146044801F0D5F9C1
:100DE0002146024801F0D3F970BD00000008004020
:100DF0002DE9F0410546884616461C46FFF7FEFDE4
:100E0000FFF7B6FE002101EB4501C8B2FFF77CFEFB
:100E1000FFF7FAFE4046FFF777FEFFF7F5FEFFF714
:100E2000A7FE012101EB4501C8B2FFF76DFEFFF7F8
:100E3000EBFE00270EE0701EB84204DD0120FFF734
:100E40002BFE207003E00020FFF726FE2070641CBC
:100E5000781CC7B2B742EEDBFFF7B0FE0020BDE85A
:100E6000F0812DE9F04106460F4690461C46FFF7FB
:100E70007FFE002101EB4601C8B2FFF745FEFFF7F8
:100E8000C3FE20B1FFF79AFE0120BDE8F08138468D
:100E9000FFF73AFEFFF7B8FE18B1FFF78FFE01200B
:100EA000F3E700250CE02078FFF72EFE641CFFF727
:100EB000ABFE18B1FFF782FE0120E6E7681CC5B261
:100EC0004545F0DBFFF77AFE0020DEE7FFB50021A5
:100ED00000250026002306E0224830F8230080B2D7
:100EE0002DF813005B1C072BF6DBBDF80000C0F3E8
:100EF0000B00ADF800000020ADF80E00002221E04C
:100F0000104602EBD0777F10A2EB4707012F04D1E8
:100F100050101DF81000414004E050103DF8100042
:100F200081EA202108240AE001F4004020B14FF4B6
:100F3000405080EA410100E04900601EC4B2002C2C
:100F4000F2DC521C102ADBDBC1F303310D460548ED
:100F50000068C0F30736B54202D1012004B0F0BDED
:100F60000020FBE76003002038B504460025FFF7AA
:100F7000FFFDEC20FFF7C8FDFFF746FE2046FFF718
:100F8000C3FDFFF741FEFFF719FE0A2001F050FFF5
:100F9000FFF7EEFDEC20FFF7B7FDFFF735FE002071
:100FA000FFF7B2FDFFF730FEFFF708FEFFF7E0FDA9
:100FB000ED20FFF7A9FDFFF727FE0120FFF76CFDED
:100FC0008DF800000120FFF767FD8DF8010000207B
:100FD000FFF762FD8DF80200FFF7F0FD9DF80000BD
:100FE00001049DF8010001EB00209DF80210451856
:100FF000284638BD2DE9F0475820FFF7B5FF844952
:101000000860142001F014FF4820FFF7ADFF81496C
:101010000860142001F00CFF7F4840697C49096892
:10102000A1EB00207D4908607B480023C1687B4814
:101030000068C217A1FB004703FB007001FB02011F
:101040004FF480722046FFF7E6F8734A52684FF477
:101050000043A2FB0332C0185141714A03C26E48DB
:10106000002301696D480068C617A1FB004703FB18
:10107000007001FB060180222046FFF7CCF8664A8B
:1010800092684FF48033A2FB032380185941654ACC
:1010900003C261488069002260490968CE17A0FB3D
:1010A000014702FB017100FB06114FF4000200230F
:1010B0002046FFF7B0F84FF4FA6140185A4908602B
:1010C00008460068B0F5FA6F38DA0320534909681A
:1010D00080FB011351480068C617A1FB004703FBC2
:1010E000007001FB0601002202232046FFF793F85F
:1010F0004E4908604C490968A1F5FA6101EB4101CC
:10110000494A1268A2F5FA6201FB02F000EBD071C5
:101110004910474A116044490968A1F5FA6101EB99
:101120008101414A1268A2F5FA6201FB02F0C1177F
:1011300000EB5171C9103F4A11601EE0374800684A
:1011400040434000C117044600222023FFF763F804
:101150003649086034490968A1F5FA61324A1268D3
:10116000A2F5FA6201FB02F0C11700EB117109113F
:101170002F4A116000202F4908602A48D0E900302A
:101180002B490968CA17591A60EB02002A4AC2E9BA
:1011900000102348D0E9003026490968CA17591AB7
:1011A00060EB0200254AC2E900101A4800680023DB
:1011B0001146D1E90021A0FB026A03FB02A201FB58
:1011C00000214FF400123046FFF725F81A4B0CCBE4
:1011D000841A61EB03014FF4005200232046FFF70D
:1011E0001AF880460A220023FFF715F81449086010
:1011F0000D4909680D4A1268881A04F071FE044608
:101200000022104B04F014FD0F4A03C2BDE8F08722
:10121000C4000020C000002060030020A4000020C3
:10122000B8000020B0000020A8000020E00000204E
:10123000D8000020DC000020E8000020F0000020A2
:10124000D000002000005940C800002070B500F018
:1012500041F8142001F0ECFD002430E0FFF788FC99
:10126000EC20FFF751FCFFF7CFFCA02101EB44017C
:10127000C8B2FFF749FCFFF7C7FCFFF79FFC05204A
:1012800001F0FCFDFFF774FCED20FFF73DFC0520AD
:1012900001F0F4FDFFF7B8FC0120FFF7FDFB054668
:1012A000052001F0EBFD0020FFF7F6FB0646FFF7F7
:1012B00085FC46EA0520064941F82400641C072CF9
:1012C000CCDB0348006808B9012070BD0020FCE7B2
:1012D0006003002010B5FFF74BFCEC20FFF714FC77
:1012E000FFF792FC1E20FFF70FFCFFF78DFCFFF7C6
:1012F00065FC10BD10B50324FFF7ECFF142001F0CE
:1013000097FDFFF7A3FF142001F092FDFFF7DEFD2C
:1013100008B9002400E00124204610BD00BFFEE70C
:1013200010B5044611480078844201DB0F48047868
:101330000E4800784042A04202DB0C48007844424C
:101340000B48B0F90000012202FB040081B20948F9
:1013500000F01BFF0649B1F90010012202FB041046
:1013600005F07CFA0449086010BD00007A000020F6
:1013700078000020000400409000002010B50446D2
:101380000C480078844201DB0A4804780948007858
:101390004042A04202DB0748007844420648B0F9C8
:1013A00000004FF0FF3202FB040081B2034800F05E
:1013B000EEFE10BD7A0000207800002000040040FE
:1013C00010B504460C480078844201DB0A480478D2
:1013D000094800784042A04202DB074800784442B6
:1013E0000648B0F90000012202FB040081B2044863
:1013F00000F0D1FE10BD00007A000020780000202F
:101400000004004010B504460C480078844201DB1B
:101410000A480478094800784042A04202DB0748A5
:10142000007844420648B0F900004FF0FF3202FB5A
:10143000040081B2034800F0ACFE10BD7A00002029
:10144000780000200004004010B504460C480078E5
:10145000844201DB0A480478094800784042A042EF
:1014600002DB0748007844420648B0F90000012238
:1014700002FB040081B2044800F089FE10BD0000A8
:101480007A00002078000020002C014010B50446AE
:101490000C480078844201DB0A4804780948007847
:1014A0004042A04202DB0748007844420648B0F9B7
:1014B00000004FF0FF3202FB040081B2034800F04D
:1014C00064FE10BD7A00002078000020002C01404E
:1014D00010B504460C480078844201DB0A480478C1
:1014E000094800784042A04202DB074800784442A5
:1014F0000648B0F900004FF0FF3202FB040081B251
:10150000034800F046FE10BD7A000020780000205D
:10151000002C014010B504460C480078844201DBE1
:101520000A480478094800784042A04202DB074894
:10153000007844420648B0F90000012202FB040092
:1015400081B2044800F027FE10BD00007A000020A0
:1015500078000020002C01402DE9FF4F8DB00C4693
:101560001C9E1A9D0D9818B1644800686449086073
:101570000D9820B1012809D0022815D10DE04FF0B7
:10158000000B00200C900B900A900DE04FF0010B27
:1015900001200C900B900A9006E04FF0FF3B58465C
:1015A0000C900B900A9000BF00BF109820B101284A
:1015B00008D0022817D10EE000200990089007906B
:1015C000069010E04FF0FF3009900120089007903E
:1015D000801E069007E001200990801E0890079069
:1015E0000120069000BF00BF1B9820B1012807D042
:1015F000022814D10CE00027B846B946BA460EE0DE
:101600004FF0FF37B8464FF001094FF0010A06E0EE
:101610000127B8464FF0FF394FF0FF3A00BF00BF37
:101620000BFB04F0099901FB050007FB060000B263
:1016300005900C986043089901FB050008FB060023
:1016400000B204900B986043079901FB050009FB69
:10165000060000B203900A986043069901FB05005A
:101660000AFB060000B202900F98B8BB059805F07F
:10167000F5F8009023480168009804F04FFF0190AE
:1016800005F0B0F800B20590049805F0E7F8009076
:101690001D480168009804F041FF019005F0A2F890
:1016A00000B20490039805F0D9F80090174801683B
:1016B000009804F033FF019005F094F800B2039015
:1016C000029805F0CBF8009011480168009804F0EA
:1016D00025FF019005F086F800B202900598FFF70B
:1016E0001FFE0498FFF74AFE0398FFF769FE029871
:1016F000FFF788FE11B0BDE8F08F0000D000002099
:101700009C0000207C00002080000020840000203D
:10171000880000202DE9FF4F87B00C461D46159E1E
:10172000079820B1012807D0022814D10BE0002728
:10173000B846B946BA460EE00127B8464FF0FF3921
:101740004FF0FF3A07E04FF0FF37B8464FF001097E
:101750004FF0010A00BF00BF149820B1012809D042
:10176000022818D10EE04FF0000B002006900590E3
:10177000049010E04FF0FF3B012006900590801E82
:10178000049008E04FF0010B4FF0FF3006900590F9
:101790000120049000BF00BF099820B1012808D0A3
:1017A000022819D10FE000200390029001900090D0
:1017B00012E04FF0FF30039001200290801E019054
:1017C0000120009008E001200390801E029001207B
:1017D0000190801E009000BF00BF07FB04F1039A38
:1017E00002FB05110BFB061108B2FFF72DFE08FBEB
:1017F00004F1029A02FB0512069901FB062108B2C8
:10180000FFF744FE09FB04F1019A02FB051205995A
:1018100001FB062108B2FFF75BFE0AFB04F1009A08
:1018200002FB0512049901FB062108B2FFF772FEC4
:101830000BB0BDE8F08F10B540F2CF2140F2CF7071
:1018400003F0AEFE40F2CF2140F2CF7003F01EFE57
:101850000020FFF765FD0020FFF790FD0020FFF757
:10186000AFFD0020FFF7CEFD0020FFF7EDFD0020CB
:10187000FFF70CFE0020FFF72BFE0020FFF74AFECB
:101880004FF47A7001F0D4FA4FF47A7001F0D0FA84
:101890004FF4FA7001F0CCFA4FF47A7001F0C8FA04
:1018A0004FF47A7001F0C4FA10BD704770B5002192
:1018B00000230F22C47804B3154C246804F4E064B8
:1018C000C4F5E064210AC1F10403CA40447804FA73
:1018D00003F184781440214309010E4C0678A15588
:1018E000047804F01F050124AC4005786D11AD00AB
:1018F00005F1E025C5F8004109E0047804F01F0572
:101900000124AC40044D0678761145F8264070BDA0
:101910000CED00E000E400E080E100E02DE9F041A2
:1019200004460E461746656A3946304605F0F4F817
:10193000E061E169206804F0F1FFE060E16960685E
:1019400004F0ECFF8046216904F0E8FD206185F099
:1019500000484046216905F0ADF803D285F000400B
:10196000206105E02946206905F0A4F800D2256130
:10197000D4E9070105F0D0F88046A16804F0CEFF55
:101980006061D4E9030104F0C9FD8046616904F097
:10199000C5FDA061E0692062BDE8F08170B52E4808
:1019A00002682E4801682E48FFF7B8FF2A484268AF
:1019B0002A4841682B48FFF7B1FF2B48006804F024
:1019C0004DFF04462948006804F048FF05462246BA
:1019D00029462748FFF7A2FF2248806980F000458A
:1019E0001F488169284604F099FD04462048816912
:1019F000204605F091F81F4908601A48806980F078
:101A0000004517488169284605F086F804461848BD
:101A10008169204605F080F817490860104A9169ED
:101A2000104A906905F078F804461148816920460B
:101A300005F072F811490860094A9169094A9069EC
:101A400004F06CFD04460A488169204605F064F8FC
:101A50000B49086070BD00004803002054030020BB
:101A6000F8020020D0020020D00000209C000020BE
:101A7000200300207C000020800000208400002043
:101A80008800002019481A49086000204860194859
:101A900088600020C8610862C86008614861886188
:101AA000486215481549086000204860144888605D
:101AB0000020C8610862C8600861486188614862A6
:101AC000104811490860114848601148886000209A
:101AD000C8610862C8600861486188610D48486251
:101AE00000200D4908604860886070479A99193F46
:101AF000D0020020CDCCCC3DCDCCCC3EF802002095
:101B0000CDCC4C3D00002040200300200AD7A33C50
:101B10009A99993F0000404154030020704700000B
:101B200029B1064AD2690243044BDA6104E0034A50
:101B3000D2698243014BDA61704700000010024015
:101B400029B1064A92690243044B9A6104E0034AB0
:101B500092698243014B9A61704700000010024075
:101B600030B500210022002400232D4D6D6805F0C2
:101B70000C0121B1042905D0082923D105E0294D04
:101B8000056022E0274D05601FE0254D6D6805F4D6
:101B90007012234D6D6805F48034022505EB9242E6
:101BA0001CB9214D554305600BE01D4D6D6805F4D2
:101BB00000351DB11C4D5543056002E0194D5543DC
:101BC000056002E0174D056000BF00BF144D6D6851
:101BD00005F0F0010909154D6B5C0568DD404560B5
:101BE0000F4D6D6805F4E061090A104D6B5C4568A6
:101BF000DD4085600A4D6D6805F46051C90A0B4DE2
:101C00006B5C4568DD40C560054D6D6805F440417D
:101C1000890B074D6B5CC568B5FBF3F5056130BDFD
:101C20000010024000127A0000093D001C00002054
:101C30002C000020704710B500F002F810BD000025
:101C40000CB50020019000903348006840F48030CB
:101C50003149086000BF3048006800F4003000904F
:101C60000198401C0190009818B90198B0F5A06F38
:101C7000F1D12948006800F4003010B10120009033
:101C800001E0002000900098012843D1234800681B
:101C900040F01000214908600846006820F0030069
:101CA00008600846006840F0020008601A48406872
:101CB000194948600846406848600846406840F452
:101CC000806048600846406820F47C104860084600
:101CD000406840F4E81048600846006840F08070B2
:101CE000086000BF0C48006800F000700028F9D0C0
:101CF0000948406820F003000749486008464068EA
:101D000040F00200486000BF0348406800F00C004B
:101D10000828F9D10CBD000000100240002002404C
:101D2000042808D14FF0E021096941F004014FF087
:101D3000E022116107E04FF0E021096921F0040180
:101D40004FF0E022116170477047000010B5134852
:101D5000006840F0010011490860084640681049D9
:101D600008400E494860084600680E4908400B4983
:101D700008600846006820F4802008600846406833
:101D800020F4FE0048604FF41F008860FFF753FF07
:101D90004FF000600449086010BD000000100240D0
:101DA0000000FFF8FFFFF6FE08ED00E010B501218E
:101DB000084800F075F860B10748008840F400401A
:101DC000054908800121034800F04CF8002000F08C
:101DD00005F810BD000800407600002010B504464C
:101DE00044B10021064800F0D9F90121044800F06F
:101DF0003CF803E00021024800F037F810BD000075
:101E00000008004010B50121094800F049F850B120
:101E10000121074800F026F806480078401C0549D3
:101E20000870FFF7BBFD0121014800F01BF810BD51
:101E3000000C00400200002010B504462146024874
:101E400000F013F810BD0000000C004021B1028822
:101E500042F08002028004E002884FF67F731A404D
:101E600002807047CA430282704721B1028842F063
:101E70000102028004E002884FF6FE731A400280DD
:101E8000704731B1B0F8442042F40042A0F8442039
:101E900005E0B0F84420C2F30E02A0F844207047D9
:101EA00030B50246002000230024158A05EA01030C
:101EB000958905EA010413B10CB1012000E000206E
:101EC00030BD1AB183890B43838102E083898B4340
:101ED0008381704770B5002400220023058C4FF6E3
:101EE000FE7635400584028C8388048B4FF68F750F
:101EF0002C40B51E2C400D882C43751E2A400D89A0
:101F00002A434D882A43144DA8420BD0134DA842B2
:101F100008D0134DA84205D0124DA84202D0124D50
:101F2000A84213D14FF6F7752A404D892A434FF640
:101F3000FB752A408D882A434FF6FF652B404FF6EC
:101F4000FF552B408D892B43CD892B438380048300
:101F5000CD888586028470BD002C0140003401408C
:101F60000040014000440140004801400A46002171
:101F7000018B4FF6F773194011430183704700003E
:101F800070B5002400220023058C4FF6EF76354013
:101F90000584028C8388048B48F6FF752C404FF62D
:101FA000FF452C400D884FF6FF7606EA05252C43A9
:101FB0004FF6DF752A400D8906EA05152A434D883C
:101FC00006EA05152A43154DA84202D0144DA84231
:101FD0001DD14FF67F752A404D894FF6FF7606EAF0
:101FE00005152A434FF6BF752A408D8806EA051568
:101FF0002A434FF6FF352B404FF2FF752B408D895A
:1020000006EA85052B43CD8906EA85052B438380A7
:102010000483CD880587028470BD0000002C014038
:10202000003401400A460021018B4FF2FF73194032
:102030004FF6FF7303EA0223194301837047000040
:1020400070B5002400220023058C4FF6FF66354052
:102050000584028C8388848B4FF68F752C404FF655
:10206000FC752C400D882C434FF6FF552A400D89F6
:102070004FF6FF7606EA05252A434D8806EA052530
:102080002A43154DA84202D0144DA8421DD14FF24B
:10209000FF752A404D894FF6FF7606EA05252A434B
:1020A0004FF6FF352A408D8806EA05252A434EF66D
:1020B000FF752B404DF6FF752B408D8906EA0515FF
:1020C0002B43CD8906EA05152B4383808483CD8875
:1020D0008587028470BD0000002C0140003401405F
:1020E0000A460021818B4FF6F77319401143818313
:1020F0007047000070B5002200230024058C4EF6C6
:10210000FF7635400584038C8488828B48F6FF7502
:102110002A404FF6FF452A400D884FF6FF7606EA23
:1021200005252A434DF6FF752B400D8906EA053536
:102130002B434D8806EA05352B430B4DA84202D0B0
:102140000A4DA84208D14BF6FF752C408D894FF6F9
:10215000FF7606EA85152C4384808283CD88A0F81B
:102160004050038470BD0000002C01400034014049
:102170000A460021818B4FF2FF7319404FF6FF731F
:1021800003EA0223194381837047818670470187E0
:10219000704781877047A0F840107047818470476E
:1021A000002202881D4B98420ED01D4B98420BD046
:1021B000B0F1804F08D01B4B984205D01A4B984283
:1021C00002D01A4B984204D14FF68F731A404B88B5
:1021D0001A43174B984207D0164B984204D04FF63B
:1021E000FF431A40CB881A4302808B8883850B8873
:1021F00003850A4B98420BD0094B984208D00E4BEE
:10220000984205D00D4B984202D00D4B984201D117
:102210000B7A03860123838270470000002C014063
:10222000003401400004004000080040000C004061
:1022300000100040001400400040014000440140F4
:102240000048014010B50120134B1B8803F40043E4
:1022500003B3124B5B78412B19D1104B9B78412B68
:1022600015D10E4B1B7D422B11D10C4BDB7C422B2D
:102270000DD10022032107E0084B5B5C084CA354FE
:10228000531CDAB24B1CD9B21329F5DB0020002312
:10229000014C238010BD00003800002018010020F0
:1022A0000801002010B540F225512F4800F0C7F872
:1022B000002845D02C4800F07DF9C4B27B2C05D114
:1022C00001202A4908700020294908802748007801
:1022D000012835D12648008800F4004080BB2448FE
:1022E000008800F4804078B17A2C03D00020204987
:1022F000088025E01E48008840F400401C49088002
:1023000000201A4908701BE0792C06D11848008873
:1023100040F480401649088012E015480088C0F358
:102320000D0014490C5412480088401C10490880C4
:1023300008460088C0F30D00142801DD0020088045
:1023400040F22551084800F052F80821064800F0F4
:1023500069F8012806D10821034800F03FF8024837
:1023600000F028F910BD0000003801403A000020BC
:10237000380000201801002010B540F22551134804
:1023800000F05DF800B3114800F014F9C4B2104831
:102390000088C82812DA00210E48FFF7FFFE0C481B
:1023A000008810B90120FFF719FD0948018800884D
:1023B000401C074A10800848445405E0044800883F
:1023C00040F400400249088010BD00000044004075
:1023D00076000020000800400802002001F400728E
:1023E000B2F5007F00D100BFCA430280704710B52C
:1023F0000022002340F66A14A14200D100BF0A1255
:1024000001249440A3B2DC43048010BD21B1828931
:1024100042F40052828104E082894DF6FF731A4033
:102420008281704702460020B1F5007F00D100BFD5
:1024300013880B400BB1012000E00020704770B5FD
:102440000246002400230025002040F66A16B1420F
:1024500000D100BFC1F3421501F01F03012606FAA7
:1024600003F3012D02D19689334006E0022D02D1FB
:10247000168A334001E0968A33400C12012606FA90
:1024800004F41688344013B10CB1012000E00020A0
:1024900070BDF0B50346002400260025002040F65C
:1024A0006A17B94200D100BF1846C1F3421401F0C7
:1024B0001F06012707FA06F5012C01D10C3004E0B4
:1024C000022C01D1103000E014301AB107682F43FC
:1024D000076002E00768AF430760F0BD2DE9F047F1
:1024E00086B005460E460024A24600BFA14600273E
:1024F000B08900B100BF2F462C8A4CF6FF70044013
:10250000F08804432C82AC894EF6F3100440B08866
:1025100031890843718908430443AC81AC8A4FF682
:10252000FF400440B0890443AC8201A8FFF718FBC8
:102530001F48874202D1DDF810A001E0DDF80CA0B1
:10254000A88900F4004040B10AEBCA0000EB0A1071
:1025500031684900B0FBF1F807E00AEBCA0000EB74
:102560000A1031688900B0FBF1F86420B8FBF0F084
:1025700004012009642101FB1089A88900F40040AE
:1025800040B1322000EBC900B0FBF1F000F00700D1
:10259000044308E0322000EB09106421B0FBF1F0A5
:1025A00000F00F0004432C8106B0BDE8F087000066
:1025B0000038014001468888C0F30800704700BF1A
:1025C000FEE7490050EAC12018BF04204A0D18BF99
:1025D00040F0010040F2FF72B2EB515F08BF40F0E3
:1025E0000200012808BF052070472DE9F0414F1E69
:1025F00000EBC7010446D1E9000115461E4637F03D
:1026000006020DD02A46334603F082FC7F1E04EBFF
:10261000C703D3E9002303F05BFA37F00602F1D1D8
:10262000022F25D0042F13D0062F18BFBDE8F0814C
:102630002A46334603F06CFCD4E90A2303F048FA37
:102640002A46334603F064FCD4E9082303F040FA39
:102650002A46334603F05CFCD4E9062303F038FA3B
:102660002A46334603F054FCD4E9042303F030FA3D
:102670002A46334603F04CFCD4E9022303F028FA3F
:102680002A46334603F044FCD4E90023BDE8F04178
:1026900003F01EBA012204F0E6BA03F019BA0022D0
:1026A00013461046114603F0C3BA0000024A002048
:1026B000110704F0D8BA000001FDFFFF30380A28E6
:1026C00001D2012070470020704700BF7047000012
:1026D0002DE9FE4F06460F460025684601F0DCF95D
:1026E000002442E056F8240057F82410A0EB010A19
:1026F000BAF1000F01DB514601E0CAF100010846C2
:1027000004F0ACF883464FF08F4103F075FF80462C
:102710005DF82400002104F031F816D05DF8241093
:10272000404603F069FF82464FF07E5104F0F4F911
:10273000814629F0004A0F48416A504604F0BAF930
:1027400012D20120A04005430EE00A48C16940466C
:1027500004F0B0F805D30748016A404604F0AAF92E
:1027600002D20120A0400543641C032CBADB28469A
:10277000BDE8FE8F1C6D00082DE9F04D8D4F21F056
:10278000004A86B005460C46BA452ADBAAEB07008C
:1027900028430AD08848824501DC1AD1CDB106B061
:1027A0002846BDE8F04DFFF775BF844A844B2846A4
:1027B00003F0AEFB07460E46824A834B284621466D
:1027C00003F0A6FB06B03A463346BDE8F04D03F0F1
:1027D0007FB90120FDF704FF06B0BDE8F04DFFF71B
:1027E0005EBF7A48824542DABAF1795F0BDA284651
:1027F000FFF7E7FE042808BFFFF758FF284606B09A
:102800002146BDE8F08D2A460B46104603F080FBBA
:10281000834602466E480E460B4606217844FFF773
:10282000E4FE5A46334603F073FB804669488A4605
:102830005A46334604217844FFF7D7FE5A463346BA
:1028400003F066FB00223B4603F042F902460B46CA
:102850004046514603F0ECF92A46234603F058FB64
:1028600006B02A462346BDE8F04D03F031B92846AC
:1028700024F0004100223D463B4603F047FC4FF068
:10288000FF3204F0F0F90646024653480F460B4665
:1028900006217844FFF7A9FE32463B4603F038FB99
:1028A000CDE900014D4832463B4604217844FFF70C
:1028B0009CFE32463B4603F02BFB00222B4603F0E6
:1028C00007F9834602913046394603F041F88046C5
:1028D00043480D46504517DCDDE900015A46029B8E
:1028E00003F0A6F942462B4603F012FB42462B4664
:1028F00003F0EEF8012204F0B6F9304A304B03F051
:10290000F7FC304A304B4CE04FF0000A52460B4681
:10291000404603F0DDF8CDE9031052462B46104641
:10292000194603F0F5FA32463B4603F0EFFBDDE9CA
:10293000033203F07DF906460F46DDE900015A46F1
:10294000029B03F075F98346009101223046394617
:1029500004F089F9194A1A4B03F0D8FB06460F46D2
:1029600001224046294604F07EF95A46009B03F0B6
:10297000CFFA32463B4603F0BBFC06460F46012227
:102980005046294604F06FF90E4DDFF858802A466C
:10299000434603F0BBFB32463B4603F0B7FB2A46F7
:1029A000434603F0B3FB002CD8BF81F0004106B0D2
:1029B000BDE8F08D0000F03F0000F07F075C1433AD
:1029C00026A6913C182D4454FB21F93F0000E03F1E
:1029D0003051000046510000BA500000D0500000B5
:1029E0003333EF3FFB21E93F2DE9F84F04460D4615
:1029F00021F0004000917349814211DC7249884204
:102A000001DC06D12CB120462946BDE8F84FFFF77E
:102A100041BE6E48002DCCBF6D496E49BDE8F88FB0
:102A20006D49814211DD6D498142D8BF4FF0FF36BB
:102A30006DDD20462946FFF7C4FD042808BFFFF7D7
:102A400035FE20462946BDE8F88F6549654F25F0DB
:102A50000045814233DD6449814219DD002632465A
:102A60004FF080432046294603F032F880468A46DC
:102A700001222046294604F0F6F800223B4603F0E6
:102A800037FC4246534603F0D3F804460D463EE079
:102A900001260022BA463B462046294603F018F894
:102AA00080460F46002253462046294603F020FC6C
:102AB00042463B4603F0BCF804460D4627E04B492E
:102AC00081421BDDDFF828A1022600225346204662
:102AD000294603F01DFA00223B4602F0F9FF80462A
:102AE0000F46002253462046294603F001FC424689
:102AF0003B4603F09DF804460D4608E003262246B7
:102B00002B4600203B4903F093F804460D4622462D
:102B10002B461046194603F0FBF98B4682460246C7
:102B20000B4603F0F5F907460246334888460B4644
:102B300006217844FFF759FD52465B4603F0E8F959
:102B400082462E488B463A46434605217844FFF795
:102B50004CFD3A46434603F0DBF902460B46002E95
:102B6000504659460CDA02F0B3FF22462B4603F0DA
:102B7000CFF901B022462B46BDE8F04F03F0C6BAAC
:102B800002F0A6FF22462B4603F0C2F91C4A7A4403
:102B900002EBC603D3E9002303F0AAFB22462B462F
:102BA00003F0A6FB174A7A4402EBC603D3E90023DD
:102BB00003F0ACFA009A002AB8BF81F00041BDE8EA
:102BC000F88F0000000010440000F07F182D4454DE
:102BD000FB21F93FFB21F9BF0000DC3F0000203E54
:102BE0000000F33F0000F03F0000E63F008003409C
:102BF0000000F83F0000F0BFD24E0000904E0000F1
:102C00002E4E0000F64D00002DE9F04D9446CCF11B
:102C1000000423F000464CEA0404524F46EAD47400
:102C20009A46884621F00042BC4206D8454240EA16
:102C3000050442EAD474BC4204D9BDE8F04D6246B2
:102C4000FFF72BBDAAF14055A5F17F6555EA0C04AD
:102C50000BD0022404EAAA74434DDFF810E144EAE1
:102C6000D87452EA000B04D00CE0BDE8F04DFFF739
:102C7000BBBE002C14BF012CBDE8F08D022C30D05F
:102C8000032C32D056EA0C0B0AD0BE4220D1BA42F5
:102C900009D126F0804622F080423346114617E0E3
:102CA00000291ADB25E0DFF8C8B0FB44002C04BF84
:102CB000DBE90001BDE8F08D012C02BFDBE900017A
:102CC00081F00041BDE8F08D022C0AD0032C0CD01D
:102CD000BA4212D1B8F1000F0BDA23482549BDE8FA
:102CE000F08D28462449BDE8F08D28467146BDE8A0
:102CF000F08D1D482149BDE8F08D921B12153C2A2C
:102D0000C4BF19481D490EDCBAF1000FBEBF12F155
:102D10003C0F0020014606DB624602F089FF21F0ED
:102D20000041FFF761FE002C08BFBDE8F08D012CCB
:102D300004BF81F00041BDE8F08D114A114B022C17
:102D400007D003F0D5FA2A46BDE8F04D0A4B03F050
:102D5000CFBA03F0CDFA2A46BDE8F04D064B03F09A
:102D6000D5B900000000F07F182D4454FB2109C0A4
:102D70008A4D0000FB21F9BFFB210940FB21F93FEF
:102D8000075C143326A6A13C2DE9F0410446E07807
:102D900000F0C006E07800F03F05607800F0010028
:102DA00098B1EF102846E91705EB5171C910A5EB52
:102DB000C101491C01F0FF080B48006820B10A4816
:102DC000414602683846904700BF607800F008002E
:102DD00030B10548406818B1B011034A51688847BE
:102DE0000020BDE8F08100003001002010B56FF038
:102DF0000400FEF795FF0A4800680A49B0FBF1F0AD
:102E0000094908700846007800EB4001C1EBC0108A
:102E10004FF6FF7101EAC0000449088010BD0000B0
:102E20000800002000127A0030000020320000204C
:102E30000146114A12884A434FF0E0235A610022AA
:102E40009A611A46126942F001021A6100BF4FF0FE
:102E5000E022106900F001021AB100F48032002A69
:102E6000F5D04FF0E022126922F001024FF0E0238A
:102E70001A6100229A617047320000200146114A0F
:102E800012784A434FF0E0235A6100229A611A46B1
:102E9000126942F001021A6100BF4FF0E02210698E
:102EA00000F001021AB100F48032002AF5D04FF090
:102EB000E022126922F001024FF0E0231A610022A1
:102EC0009A6170473000002038B5044664B1202074
:102ED0008DF8000028208DF8010030208DF80200C8
:102EE00038208DF8030004E0A32204216846FDF792
:102EF000EFFA6A46042140F69E2002F087FA01F0BC
:102F000071FE38BD3EB5044602208DF80000CA208F
:102F10008DF80100E3208DF8020009208DF80300F0
:102F20006A460421682002F071FAA3208DF800009F
:102F300004F0400048B1C0208DF80100C8208DF891
:102F40000200C2208DF8030006E0A3208DF80100E6
:102F50008DF802008DF8030004F4C07048B1C4205D
:102F60008DF80400CC208DF80500C6208DF80600F1
:102F700006E0A3208DF804008DF805008DF806000A
:102F8000A3208DF807008DF808008DF809006A4627
:102F90000A2140F6A72002F039FA04F0030018B124
:102FA00020208DF8000002E0D8208DF800006A464D
:102FB000012140F6B62002F029FA04F0200018B1F1
:102FC000012000F0ADF802E0002000F0A9F804F4C0
:102FD000C07008B304F4807060B1B2208DF80000B6
:102FE0008B208DF80100B6208DF802009B208DF813
:102FF00003000BE0B0208DF8000080208DF8010068
:10300000B4208DF8020090208DF803006A46042158
:1030100040F6A22002F0FAF904F0010020B3F820F3
:103020008DF800006A4601214FF40B6002F0EEF9C2
:10303000FA21072000F02CFC072000F0F3FB012010
:1030400000F013FC642000F0F3FC4FF4FA7000F081
:1030500002FDC821304800F0A3FB282000F0BCFB93
:103060000A2000F0CCFB08E0D8208DF800006A466A
:1030700001214FF40B6002F0C9F904F0020018B10D
:10308000D9208DF8000002E0D8208DF800006A46B3
:10309000012140F23D7002F0B9F904F0040018B1CA
:1030A000012000F069F802E0002000F065F804F06B
:1030B000100018B10120FFF707FF02E00020FFF722
:1030C00003FF44F008001549488101F08BFD002002
:1030D0001249887304F0400018B10846807B801DB7
:1030E000887304F4C07020B10C48807B801D0B49AC
:1030F000887304F0140020B10848807B1030074921
:10310000887304F0030020B10448807B001D03494C
:10311000887300203EBD000009E3CA023001002090
:103120003EB504466CB10EA1D1E900208968CDE915
:10313000002002916A4609214FF4976002F066F977
:103140003EBD0AA2D2E900109268CDE901020091C9
:103150006A4609214FF4976002F058F9F0E7000041
:10316000B8AAB38DB4980D355D000000B8AAAAAA1C
:10317000B088C3C5C700000038B5044664B1C0209C
:103180008DF80000C2208DF80100C4208DF80200E7
:10319000C6208DF8030004E08B2204216846FDF769
:1031A00097F96A46042140F6982002F02FF901F0C1
:1031B00019FD38BD10B5C8234FF48062024940F6AE
:1031C000F63001F0A3FB10BD446D00082DE9F04F6F
:1031D0008DB00746884615469946DDE9166B0024F2
:1031E000002030806B49887B5A4605A901F05AFCC3
:1031F00018B1601E0DB0BDE8F08F6648807A00F00F
:103200001400002867D09DF8140000069DF81510E2
:1032100040EA01409DF8161040EA01209DF8171081
:10322000084328609DF8180000069DF8191040EA30
:1032300001409DF81A1040EA01209DF81B10084338
:1032400068609DF81C0000069DF81D1040EA0140D2
:103250009DF81E1040EA01209DF81F100843A86049
:103260009DF8200000069DF8211040EA01409DF8DD
:10327000221040EA01209DF823100843E86004F181
:103280001000C4B22868001401906868001402900D
:10329000A86800140390E868001404900198404363
:1032A000029901FB0100039901FB0100049901FB54
:1032B000010ABAF1706F02DBBAF1885F05DD01F037
:1032C00091FC00203080401E94E7B6F9000040F4E5
:1032D0008070308000BF2F48807A00F0400020B31B
:1032E00005A9601C085C095D40EA012000B2A8F84D
:1032F000000005A9E01C095C05AAA01C105C41EABD
:10330000002000B2A8F8020005A9601D095C201D7C
:10331000105C41EA002000B2A8F80400A01DC4B26D
:10332000B6F9000040F0080030801A48408900F4E7
:10333000C07008B305A9601C085C095D40EA012063
:1033400000B2388005A9E01C095C05AAA01C105C2D
:1033500041EA002000B2788005A9601D095C201DAB
:10336000105C41EA002000B2B880A01DC4B2B6F9DA
:10337000000040F0700030800648807A00F00300C2
:1033800018B105A90819FFF7FFFC484600F054FFE3
:1033900000202FE73001002070B588B0064601A854
:1033A00001F008F9BDF804000021C90341EA5045C5
:1033B000C4034448007A00F0030056F8200005904A
:1033C0004048007A00F0040010B105984042059092
:1033D0003C48007AC0F3C10056F8200006903948F6
:1033E000007A00F0200010B106984042069035485F
:1033F000007AC0F3811056F8200007903148008908
:1034000000F4807010B10798404207900598C117EA
:10341000A0FB042301FB043100FB0510810041EAFD
:10342000927005900698C117A0FB042301FB04319C
:1034300000FB0510810041EA927006900798C117C1
:10344000A0FB042301FB043100FB0510810041EACD
:10345000927007900598000E8DF808000598000CF2
:103460008DF809000598000A8DF80A000598C0B289
:103470008DF80B000698000E8DF80C000698000CD5
:103480008DF80D000698000A8DF80E000698C0B25F
:103490008DF80F000798000E8DF810000798000CAB
:1034A0008DF811000798000A8DF812000798C0B235
:1034B0008DF8130002AA0C214FF4257001F0A6FF2D
:1034C00008B070BD3001002030B585B0044616A2AA
:1034D00007CA02AB07C3C82C03DD4FF0FF3005B0AD
:1034E00030BDC82090FBF4F0401E85B2280A8DF84C
:1034F0000000E8B28DF801006A46022140F2162071
:1035000001F084FF10B14FF0FF30E8E702AA0C2170
:1035100040F6C12001F07AFF10B14FF0FF30DEE736
:10352000044884810020DAE7FEF2ABC4AAF1DFDFB1
:10353000BBAFDFDF300100201FB504464848007AEA
:1035400000F0030054F8200001904548007A00F094
:10355000040010B10198404201904148007AC0F344
:10356000C10054F8200002903D48007A00F020008D
:1035700010B10298404202903948007AC0F381109D
:1035800054F8200003903648008900F4807010B190
:103590000398404203903349019880FB0101800F5A
:1035A00040EA810001902F49029880FB01108200BF
:1035B00042EA917002902B49039880FB011082002F
:1035C00042EA917003900198000E8DF80000019876
:1035D000000C8DF801000198000A8DF80200019896
:1035E000C0B28DF803006A4604214FF4747001F0F4
:1035F0000DFF18B14FF0FF3004B010BD0298000E5F
:103600008DF800000298000C8DF801000298000A65
:103610008DF802000298C0B28DF803006A460421BA
:103620004FF4757001F0F2FE10B14FF0FF30E3E798
:103630000398000E8DF800000398000C8DF801002F
:103640000398000A8DF802000398C0B28DF80300B9
:103650006A4604214FF4767001F0D8FECCE70000F2
:103660003001002009E3CA0210B586B0044647A025
:103670000068039046A00068029046A00068019090
:1036800045A00068009004F0030003A9085C8DF8D1
:10369000140003A8C4F3C101405C8DF8150003A811
:1036A000C4F38111405C8DF8160004F0030002A9F8
:1036B000085C8DF8100002A8C4F3C101405C8DF8CD
:1036C000110002A8C4F38111405C8DF8120005AA14
:1036D000032140F2264001F099FE18B14FF0FF306F
:1036E00006B010BD04AA032140F22A4001F08EFE6C
:1036F00010B14FF0FF30F3E7019805900098049067
:1037000004F0040058B19DF8140040F001008DF859
:1037100014009DF8100040F001008DF8100004F036
:10372000200058B19DF8150040F001008DF81500FB
:103730009DF8110040F001008DF8110004F4807034
:1037400058B19DF8160040F001008DF816009DF864
:10375000120040F001008DF8120005AA03214FF479
:10376000886001F053FE10B14FF0FF30B8E704AAB3
:10377000032140F2314001F049FE10B14FF0FF301B
:10378000AEE7064804810020AAE700004CCD6C009B
:103790000CC92C0036567600264666003001002003
:1037A000F8B505460E464FF47A7095FBF0F000FB35
:1037B00006F4200E8DF80000200C8DF80100200A80
:1037C0008DF80200E0B28DF803006A4604214FF440
:1037D000AE7001F01BFEF8BD38B50446052094FB21
:1037E000F0F084B220128DF80000E0B28DF80100F4
:1037F0006A4602214FF4AD7001F008FE38BD38B5BD
:103800000446052094FBF0F084B220128DF80000ED
:10381000E0B28DF801006A4602214FF4AC7001F06D
:10382000F5FD38BD38B504460020009004F00100D5
:1038300020B19DF8000040F03000009004F002003C
:1038400020B19DF8000040F00C00009004F004004E
:1038500020B19DF8000040F0030000906A4601216D
:103860004FF4A47001F0D2FD38BD38B50446012CE8
:1038700001DA012402E0042C00DD0424601EC0B241
:1038800000906A46012140F24F1001F0BFFD38BDA3
:103890002DE9FC4706460F4606F0070010B1B7F5C4
:1038A000C86F03DD4FF0FF30BDE8FC87384602F0FB
:1038B000EDFF8146594902F09FFE8046684600F0C0
:1038C00053FE9DF80000022806D0042816D00828D0
:1038D00026D0102848D135E04FF08D41404603F006
:1038E0001DF8814602F09AFF84B24D49404603F02C
:1038F00015F8814602F092FF85B238E04FF08C4116
:10390000404603F00BF8814602F088FF84B2454937
:10391000404603F003F8814602F080FF85B226E0BE
:103920004FF08B41404602F0F9FF814602F076FFEE
:1039300084B23D49404602F0F1FF814602F06EFF3D
:1039400085B214E04FF08A41404602F0E7FF81461D
:1039500002F064FF84B23549404602F0DFFF814641
:1039600002F05CFF85B202E04FF0FF309CE700BF41
:1039700020128DF80400E0B28DF8050028128DF8B1
:103980000600E8B28DF8070006F00100A0B101AA18
:1039900002214FF4EA7001F039FD10B14FF0FF3011
:1039A00082E70DF1060202214FF4927001F02EFD24
:1039B00010B14FF0FF3077E706F00200A0B101AA86
:1039C00002214FF4EC7001F021FD10B14FF0FF30F7
:1039D0006AE70DF1060202214FF4947001F016FD22
:1039E00010B14FF0FF305FE706F00400A0B101AA6C
:1039F00002214FF4EE7001F009FD10B14FF0FF30DD
:103A000052E70DF1060202214FF4967001F0FEFC20
:103A100010B14FF0FF3047E7002045E70000484372
:103A2000000040460000C045000040450000C04482
:103A300038B50446052094FBF0F085B228128DF8C5
:103A40000000E8B28DF801006A4602214FF4EF70E1
:103A500001F0DCFC38BD38B50446052094FBF0F0DD
:103A600085B228128DF80000E8B28DF801006A4690
:103A700002214FF4ED7001F0C9FC38BD00BF054ACA
:103A8000128802F04002002AF9D0C2B2014B1B1D7D
:103A90001A807047003801407CB5054628494968BE
:103AA000087801AB04220D21FDF7A2F908B1072027
:103AB0007CBD9DF80700C0F301109DF8041001F0D3
:103AC000E00140EAE1008DF800009DF80700C0F336
:103AD00081009DF8051001F0E00140EAE1008DF859
:103AE00001009DF8070000F003009DF8061001F0AA
:103AF000E00140EAE1008DF8020000241CE01DF81E
:103B0000040018B9002045F8240013E00D4845F8DA
:103B1000240006E055F824000B4902F0FFFE45F8AA
:103B200024001DF80400401EC0B20DF80400002857
:103B3000F0D100BF601CC4B2032CE0DB0020B7E76B
:103B4000400000207B14AE3E1D5A843F2DE9F04F0B
:103B500087B005460C46914601208DF810000020E4
:103B60008DF81100FE4A1268917CFD4A5268107867
:103B700004AB0222FDF775F920B14FF0FF3007B01A
:103B8000BDE8F08FC820FFF753F900208DF8100032
:103B9000F34A1268D17BF24A5268107804AB0122D2
:103BA000FDF75FF910B14FF0FF30E8E7EC4A12681B
:103BB0005179EB4A5268107804AB0122FDF751F9B4
:103BC00010B14FF0FF30DAE7E54A1268917CE44A21
:103BD0005268107804AB0122FDF743F910B14FF0A1
:103BE000FF30CCE7DE4A1268D17DDD4A526810789A
:103BF00004AB0122FDF735F910B14FF0FF30BEE7FD
:103C0000D74A12681179D64A5268107804AB01225B
:103C1000FDF727F910B14FF0FF30B0E70C208DF819
:103C20001000CF4A12681179CD4A5268107804AB5F
:103C30000122FDF716F910B14FF0FF309FE70F207A
:103C4000FFF7F6F8C648806A407A8DF81000C44A3B
:103C500012689178C24A5268107804AB0122FDF7CD
:103C600000F910B14FF0FF3089E7BD48806A007A53
:103C70008DF81000BA4A12685178B94A5268107823
:103C800004AB0122FDF7EDF810B14FF0FF3076E7FD
:103C9000B9F1000F07D0B248806A807A40F0E000A6
:103CA0008DF8100004E0AE48806A807A8DF810002C
:103CB000AB4A12689179AA4A5268107804AB012283
:103CC000FDF7CFF810B14FF0FF3058E7B9F1000F12
:103CD00007D0A348806AC07A40F0E0008DF8100059
:103CE00003E0A048C07A8DF810009D4A1268D1798F
:103CF0009B4A5268107804AB0122FDF7B2F810B16C
:103D00004FF0FF303BE7B9F1000F02D0C820FFF7BA
:103D10008FF840208DF81000914A12681179904A6E
:103D20005268107804AB0122FDF79BF810B14FF0F8
:103D3000FF3024E778208DF81000894A1268517905
:103D4000874A5268107804AB0122FDF78AF810B157
:103D50004FF0FF3013E783498889FFF769F80020A7
:103D60008DF810007E4A126851797D4A52681078A9
:103D700004AB0122FDF775F810B14FF0FF30FEE6FD
:103D8000774A1268917A764A5268107804AB022218
:103D9000FDF72EF810B14FF0FF30F0E69DF811005E
:103DA0009DF8101040EA012B0C209BFBF0F0C6B2EE
:103DB0000020A86068602860A06060602060824683
:103DC00065E0674A1268D17A654A5268107804AB98
:103DD0000C22FDF70DF810B14FF0FF30CFE69DF843
:103DE00011009DF8101040EA012000B2ADF8080063
:103DF0009DF813009DF8121040EA012000B2ADF8C2
:103E00000A009DF815009DF8141040EA012000B248
:103E1000ADF80C00BDF90810206808442060BDF919
:103E20000A10606808446060BDF90C10A06808447E
:103E3000A0609DF817009DF8161040EA012000B21E
:103E4000ADF800009DF819009DF8181040EA012017
:103E500000B2ADF802009DF81B009DF81A1040EA70
:103E6000012000B2ADF80400BDF900102868084434
:103E70002860BDF90210686808446860BDF9041044
:103E8000A8680844A8600AF1010000F0FF0AB245E2
:103E900097DB3448D0F800C02868C117090441EA0C
:103EA00010410704624600233846FCF7B4F9324655
:103EB0000023CDE90201FCF7AEF928602948D0F8CB
:103EC00000C06868C117090441EA1041070462464E
:103ED00000233846FCF79FF932460023CDE9020162
:103EE000FCF799F968601F48D0F800C0A868C117AE
:103EF000090441EA10410704624600233846FCF7F2
:103F00008AF932460023CDE90201FCF784F9A86062
:103F10001448D0F804C02168C817000440EA1148CA
:103F20000F046246002338464146FCF774F93246D6
:103F30000023CDE90201FCF76EF920600948D0F8B2
:103F400004C06068C117090441EA104107046246D1
:103F500000233846FCF75FF93246002304E00000F6
:103F6000400000201C6D0008CDE90201FCF753F968
:103F700060601148D0F804C0A068C117090441EA84
:103F800010410704624600233846FCF744F93246E4
:103F90000023CDE90201FCF73EF9A060A0680028EB
:103FA00004DDA068A0F58030A06003E0A06800F503
:103FB0008030A0600020E2E51C6D00082DE9FC5F68
:103FC00006460F4600253D494968087801AB0322A3
:103FD0000D21FCF70DFF10B10720BDE8FC9F9DF8F7
:103FE000040000F01F008DF804009DF8050000F0AB
:103FF0001F008DF805009DF8060000F01F008DF8E9
:104000000600002456E056F8240057F82410A0EBD0
:10401000010BBBF1000F01DB594601E0CBF10001C0
:10402000084602F01BFC4FF08F41009002F0E4FACA
:10403000814601A8005D68B32149086802F026FCAA
:10404000834659461F4802F0D7FA804604E01E49CD
:10405000404602F063FC804601A8005D401EC0B2ED
:1040600001A908550028F2D14146484602F0C4FA99
:1040700083464FF07E5102F04FFD82462AF0004BFE
:104080000F488169584602F015FD12D20120A04068
:1040900005430EE00A480169484602F00BFC05D3CF
:1040A00007484169484602F005FD02D20120A040C0
:1040B0000543641C032CA6DB28468EE74000002045
:1040C0001C6D000800B04C4554E3853F10B5044614
:1040D000204600F00FF80346E01C00F00BF843EA1E
:1040E000C00083B2A01D00F005F843EA801083B23F
:1040F000184610BD014691F90020002A01DD00207C
:104100001EE091F90020002A01DA042018E091F95C
:104110000120002A01DD012012E091F90120002A8E
:1041200001DA05200CE091F90220002A01DD0220CD
:1041300006E091F90220002A01DA062000E00720BB
:10414000704700000EB5FEF751FEFCF757FCFCF778
:104150001BFEFCF7DBFDFDF76EFBFDF793FCFDF7A7
:10416000C9F8FCF747FF2E4800682E49086040F266
:10417000CF2140F2CF7001F001FB40F2CF2140F29D
:10418000CF7001F09DFA4FF4612001F007FC00BFF1
:1041900000F09AF90028FBD1234A111F081F00F0F4
:1041A00085F8012021490860FDF746FE36E0FCF75E
:1041B00021FF1D4A111F081F00F078F8FEF742F892
:1041C0001B4801F03FFC1B4908701948C07B097867
:1041D000884223D11648007B1549C97A144A927A3D
:1041E000134CCDE900210290637A227A617820781D
:1041F000FDF7B2F92046C07921468979CDE9001052
:1042000063792279E178A078FDF784FA2146887BEA
:10421000FCF72CFD2146487BFCF7D2FDC7E70000E8
:10422000D00000209C00002050030020B401224256
:1042300008010020030000207047000070B504460C
:10424000002624F00104184890F8240008B100204A
:1042500070BD1548807A10B94FF0FF30F8E712486A
:10426000057C807A2040104908740846007CA042F2
:1042700002D04FF0FF3600E0002614B90A48007D56
:1042800018B1012001F01CFB02E0002001F018FB36
:104290003CB100F0A7FC20B1034805744FF0FF309B
:1042A000D6E73046D4E70000400000202DE9F04F6B
:1042B00099B004460D4616464FF07E574FF0000861
:1042C0004FF000094FF0000A00BF12A813A918AB65
:1042D0000EAACDE9001014A916A8FEF777FF002852
:1042E000F3D10E9802F0BAFA83464FF09D4102F0E6
:1042F00083F907460F9802F0B1FA83464FF09D41CB
:1043000002F07AF98046109802F0A8FA83464FF03E
:104310009D4102F071F98146119802F09FFA83469F
:104320004FF09D4102F068F9824639464FF08040D7
:1043300002F0F4FA4946059002F0F0FA414607907F
:104340004FF0404002F0EAFA5146059002F0E6FADA
:104350000690079902F0E2F8834602F0B3F8CDE93F
:104360000801FEF709FA4FF06632564BCDE90A0113
:1043700001F0CEFDCDE90C0101F078FB206049464B
:104380004FF0804002F0CAFA4946029002F0C6FAA5
:10439000414604904FF0404002F0C0FA414602907E
:1043A00002F0BCFA0390049902F0B6FB83464FF08A
:1043B0007E5102F0B3F8059002F084F8CDE90801CF
:1043C00039464FF0804002F0A9FA4146039002F0CE
:1043D000A5FA494604904FF0804002F09FFA5146FA
:1043E000039002F09BFA8346049902F097F8059037
:1043F00002F068F8CDE90601DDE90823FEF704FCC8
:104400004FF066322F4BCDE90A0101F081FDCDE975
:104410000C0101F02BFB28605146504602F07EFA59
:1044200049460490484602F079FA414603904046D6
:1044300002F074FA39460190384602F06FFA0090A3
:10444000019902F06BF80290039902F065FB834634
:10445000049902F061FB059002F034F8CDE90801FF
:104460005146384602F05AFA49460490404602F056
:1044700055FA0390049902F051F84FF080410590ED
:1044800002F04CFA834602F01DF8CDE90601DDE9A1
:104490000823FEF7B9FB4FF066320A4BCDE90A015B
:1044A00001F036FDCDE90C0101F0E0FA3060206842
:1044B00080F000402060286880F00040286019B03B
:1044C000BDE8F08F66A64C4070B50024FCF796FA64
:1044D00000F024F9002840D1782000F02FFFC4B26A
:1044E0000CB1012070BD7820FFF7A8FEC4B20CB15A
:1044F0000220F7E7642000F0D3FEC4B20CB1032021
:10450000F0E7FEF757FEC4B20CB10420EAE7154805
:10451000FFF7DCFD0546FFF7A7F8C4B20CB1052094
:10452000E0E740F27310FEF7EDFCC4B20CB10620D8
:10453000D8E76420FEF7C8FFC4B20CB10720D1E76A
:1045400001F074F904460CB10820CBE7012000F01B
:10455000A3FDC4B21CB10920C4E70A20C2E70020B1
:10456000C0E700006C00002001461148407A30B1DD
:10457000012807D0022808D003280CD108E0022027
:1045800008700BE00420087008E00820087005E0BF
:104590001020087002E04FF0FF30704700BF044861
:1045A000C07C18B108784006000E08700020F4E7BF
:1045B0004000002001461348407A30B1012808D05D
:1045C00002280AD0032810D10BE04FF48040088065
:1045D0000EE041F69C7008800AE04FF4805008809D
:1045E00006E04FF40060088002E04FF0FF307047B3
:1045F00000BF0448C07C10B108884010088000202B
:10460000F5E700004000002001460248007C0870E9
:10461000002070474000002001460F48007A30B16A
:10462000012807D0022809D003280FD10AE0FA2078
:1046300008800EE04FF4FA7008800AE04FF47A70B8
:10464000088006E04FF4FA60088002E0002008804D
:1046500000BF00BF002070474000002001460E4808
:10466000007A30B1012807D0022808D003280CD1E5
:1046700008E00A4808600BE00948086008E00948BB
:10468000086005E00848086002E04FF0FF3070471E
:1046900000BF0020FBE700004000002000000343B3
:1046A00000008342333303423333834101461248CF
:1046B000C07A082817D2DFE800F01704070A0D10A7
:1046C0001318BC20088013E06220088010E02A2024
:1046D00008800DE0142008800AE00A20088007E026
:1046E0000520088004E000BF00BF0020088000BF54
:1046F00000BF00207047000040000020014606482F
:1047000090F8240010B14FF0FF3070470248C08984
:1047100008800020F9E70000400000201CB5802040
:104720008DF80000654A1268917C644A52681078DE
:104730006B460122FCF795FB10B14FF0FF301CBD1A
:104740006420FEF775FB00208DF800005B4A1268BC
:10475000917C5A4A526810786B460122FCF781FB23
:1047600010B14FF0FF30EAE7544A1268917D534A86
:10477000526810786B460622FCF73AFB10B14FF0F6
:10478000FF30DCE79DF80500C007400F9DF80310DF
:1047900001F0010140EA41009DF8011001F0010122
:1047A00040EA010494B1012C03D101214348C174B2
:1047B00031E0022C03D100214048C1742BE0214696
:1047C0003FA0FBF74DFD4FF0FF30B8E73B4A1268C2
:1047D000D1783A4A526810786B460122FCF708FB00
:1047E00010B14FF0FF30AAE79DF8000000F00F0471
:1047F0002CB93D48FBF734FD4FF0FF309FE7042C08
:1048000006D13AA0FBF72CFD01212C48C17402E02F
:1048100000212A48C174FF2128488172FF202749BE
:104820000872FF2125484172C1724FF6FF71C181A4
:10483000FF21017481740121017380F8221000218D
:1048400080F8231041750175163001604160816068
:10485000163880F8241080F82510C1844FF4FA60CF
:1048600000F062FC10B14FF0FF3068E7022000F06A
:104870002BFB10B14FF0FF3061E72A2000F0CEFC97
:1048800010B14FF0FF305AE7322000F009FD10B1AF
:104890004FF0FF3053E70020FFF7D0FC10B14FF08E
:1048A000FF304CE7002000F051FB10B14FF0FF301B
:1048B00045E7002000F042FD002040E740000020D6
:1048C000556E737570706F7274656420736F667463
:1048D000776172652070726F64756374207265769B
:1048E0002025642E0A000000407A000848616C66AA
:1048F0002073656E7369746976697479207061726A
:104900007420666F756E642E0A0000002DE9F04376
:1049100085B005460E4690469946294890F82500F0
:1049200020B14FF0FF3005B0BDE8F08316B94FF06D
:10493000FF30F8E7002423E0281B102801DD1020B9
:1049400000E0281B87B232193946204600F05EFD90
:1049500010B14FF0FF30E6E701AA3946204600F0DB
:1049600001F910B14FF0FF30DDE730193A4601A9E7
:10497000FBF782FD10B16FF00100D4E7E01984B2BB
:10498000AC42D9DB4FEA28208DF8000008F0FF0088
:104990008DF801000A4A1268917E094A526810781F
:1049A0006B460222FCF75DFA10B14FF0FF30BAE718
:1049B0000121034880F82510A0F826900020B2E7D6
:1049C0004000002038B50446282C02DD4FF0FF30AF
:1049D00038BDDCB9002000F0EBFB00208DF80000B2
:1049E00007208DF801002E4A1268917C2C4A5268EB
:1049F00010786B460222FCF734FA10B14FF0FF300A
:104A0000E6E70021264801750020E1E7012000F0DB
:104A1000CFFB20208DF80000012C06D100208DF85E
:104A20000100052000F0FAFB17E0052C06DC012050
:104A30008DF80100052000F0F1FB0EE0142C06DCDF
:104A400002208DF801000A2000F0E8FB05E00320B9
:104A50008DF80100142000F0E1FB9DF80100072112
:104A600001EB8010C0B28DF801000D4A1268917CF4
:104A70000B4A526810786B460222FCF7F2F910B12B
:104A80004FF0FF30A4E7082105488172002101732F
:104A9000012101750020FFF7D1FB002098E70000FD
:104AA00040000020F8B504460F4616462C4890F802
:104AB000240010B94FF0FF30F8BD2948807A10B9B2
:104AC0004FF0FF30F8E7264A1268917A244A52687C
:104AD00010786B460222FCF78BF910B14FF0FF30D3
:104AE000EAE79DF801009DF8001040EA0125A54283
:104AF00003DA00203070401EDEE719484068408825
:104B0000B5EB600F17DD164A1268517C144A5268E3
:104B100010786B460122FCF76BF910B14FF0FF30B3
:104B2000CAE79DF8000000F0100020B100F05AF82C
:104B30006FF00100C0E7E2B2094B1B68D97A084B5D
:104B40005B6818783B46FCF753F910B14FF0FF3023
:104B5000B2E795FBF4F0401E30700020ACE7000097
:104B600040000020F8B504460D46164616B94FF031
:104B7000FF30F8BD1A48807A10B94FF0FF30F8E7DF
:104B800020128DF80000E0B28DF801009DF80100C0
:104B90002844134949684989884202DD4FF0FF30B3
:104BA000E7E70F4A1268117E0D4A526810786B468B
:104BB0000222FCF756F910B14FF0FF30D9E7EAB204
:104BC000074B1B68597D064B5B6818783346FCF72A
:104BD0000FF910B14FF0FF30CBE70020C9E700001C
:104BE0004000002008B57048807A10B94FF0FF30BF
:104BF00008BD002000906C4A1268D17B6A4A526856
:104C000010786B460122FCF72CF910B14FF0FF3001
:104C1000EEE7654A12685179634A526810786B462C
:104C20000122FCF71EF910B14FF0FF30E0E75E4AB9
:104C3000126811795C4A526810786B460122FCF7C1
:104C400010F910B14FF0FF30D2E7574890F8240028
:104C5000002853D00C200090534A12681179524A10
:104C6000526810786B460122FCF7FBF810B14FF048
:104C7000FF30BDE73220FEF7DBF8C02000904A4845
:104C8000807A00F0010020B19DF8000040F0200083
:104C90000090454A12681179434A526810786B4671
:104CA0000122FCF7DEF810B14FF0FF30A0E73E48DC
:104CB000407C10B10220009001E0002000903A4AB0
:104CC0001268D17B384A526810786B460122FCF793
:104CD000C8F810B14FF0FF308AE700200090324A48
:104CE00012685179304A526810786B460122FCF7FD
:104CF000B8F8002855D04FF0FF3079E70420009035
:104D0000294A12681179284A526810786B460122A4
:104D1000FCF7A7F810B14FF0FF3069E72248807C1C
:104D200020B92148807A00F0010010B9402000909D
:104D300001E0602000901C4A126811791A4A5268FA
:104D400010786B460122FCF78CF810B14FF0FF3061
:104D50004EE73220FEF76CF81348407C10B101207A
:104D6000009001E0002000900F4A1268D17B0E4AAB
:104D7000526810786B460122FCF773F810B14FF0BF
:104D8000FF3035E7084A12685179074A52681078AF
:104D9000054B10330122FCF764F810B14FF0FF30DF
:104DA00026E7002024E70000400000202DE9F04F16
:104DB0008DB083460F4602200C90424890F82400A4
:104DC00020B1002000F068F9012600E0002603A8C9
:104DD000FFF722FC05A8FFF7C7FB01A8FFF766FC59
:104DE00002A8FFF78BFC374890F80AA004A8FFF749
:104DF0000BFC002407E0002239465846FEF7A6FEC9
:104E000000B902E0641C022CF5DB00BF022C01D1CA
:104E1000002528E0002407E0012206A909A8FEF7E2
:104E200095FE00B902E0641C022CF5DB00BF022CE9
:104E300001D1002517E006A93846FDF749FC00F02E
:104E4000FF0809A95846FFF7B9F800F0FF09002547
:104E5000B9F1000F01D145F00105B8F1000F01D102
:104E600045F0020500BFFF2016490872FF211548D2
:104E70004172C1724FF6FF71C181FF2181720174CD
:104E800001210173BDF80C0000F04EF99DF81400EB
:104E900000F01AF8BDF8040000F0C0F9BDF80800F1
:104EA00000F0FEF9504600F049FA9DF81000FFF7B7
:104EB000C5F916B1012000F0EFF828460DB0BDE8A5
:104EC000F08F00004000002038B504461E48807A6C
:104ED00010B94FF0FF3038BD022C06D0042C07D09B
:104EE000082C08D0102C0CD108E0002000900BE01A
:104EF0000820009008E01020009005E018200090A5
:104F000002E04FF0FF30E6E700BF0F48407A9DF81F
:104F10000010B0EBE10F01D10020DCE70A4A126873
:104F2000D179094A526810786B460122FBF799FF44
:104F300010B14FF0FF30CEE79DF80000C1100248DD
:104F400041720020C7E700004000002038B5044649
:104F50005048807CA04201D1002038BD002C46D0B2
:104F60004C4A126811794B4A526810786B460122FC
:104F7000FBF73EFF10B14FF0FF30EEE79DF8000069
:104F800020F020000090434A12681179414A52688B
:104F900010786B460122FBF764FF10B14FF0FF3031
:104FA000DBE70320FDF744FF02200090394890F82A
:104FB000220020B19DF8000040F0800000903548AC
:104FC00090F8230020B19DF8000040F030000090E0
:104FD000304A1268117D2F4A526810786B460122C0
:104FE000FBF73FFF002851D04FF0FF30B5E7294ACB
:104FF00012681179274A526810786B460122FBF734
:10500000F7FE10B14FF0FF30A7E72248807A00F09A
:10501000010028B19DF8000040F02000009004E05D
:105020009DF8000020F0200000901A4A12681179C3
:10503000184A526810786B460122FBF712FF10B134
:105040004FF0FF3089E70320FDF7F2FE114890F89A
:10505000220010B18020009001E0002000900D4857
:1050600090F8230020B19DF8000040F0300000903F
:10507000084A1268117D074A526810786B4601226F
:10508000FBF7EFFE10B14FF0FF3066E70148847484
:10509000002062E74000002038B50446214890F81F
:1050A0002400A04201D1002038BD24B31D4890F84F
:1050B000250010B94FF0FF30F6E7002000F000FCAB
:1050C0000020FFF743FF1749C88C00F0E9F80020E3
:1050D00000901449496808786B4601222321FBF7A8
:1050E000C0FE01210F4880F82410012000F0E8FBE9
:1050F000FFF778FD13E0002000F0E2FB0948007C98
:1051000000900849496808786B4601222321FBF783
:10511000A8FE0021034880F82410FFF763FD00205B
:10512000C2E700004000002038B504461F48807ADE
:1051300010B94FF0FF3038BDFA2C09D0B4F5FA7F22
:1051400009D0B4F57A7F09D0B4F5FA6F0CD108E034
:10515000002000900BE00820009008E01020009054
:1051600005E01820009002E04FF0FF30E3E700BFB9
:105170000E48007A9DF80010B0EBE10F01D100203D
:10518000D9E70A4A12689179084A526810786B4642
:105190000122FBF766FE10B14FF0FF30CBE79DF820
:1051A0000000C010014908720020C4E74000002040
:1051B00038B50446184890F82300A04201D10020D9
:1051C00038BD14B13020009001E00020009012485A
:1051D000807C20B19DF8000040F0020000900E4855
:1051E00090F8220020B19DF8000040F0800000906F
:1051F000094A1268117D084A526810786B460122EC
:10520000FBF72FFE10B14FF0FF30D9E7024880F8CE
:1052100023400020D4E700004000002038B50446B9
:105220001E48807A10B94FF0FF3038BDBC2C02DB2D
:105230000120009015E0622C02DB0220009010E0BB
:105240002A2C02DB032000900BE0142C02DB04204C
:10525000009006E00A2C02DB0520009001E0062009
:1052600000900E48C07A9DF80010884201D10020BD
:10527000DBE70A4A12689178084A526810786B4650
:105280000122FBF7EEFD10B14FF0FF30CDE79DF8A6
:1052900000100248C1720020C7E700004000002053
:1052A00038B504462448807A10B94FF0FF3038BD35
:1052B000214890F8240010B14FF0FF30F7E71E4866
:1052C000007D50B134B1282C04DCE0B2FFF77AFB4A
:1052D0000020ECE70020FFF775FB042C01DA042422
:1052E00004E0B4F57A7F01DD4FF47A744FF47A70FC
:1052F00090FBF4F0401EC0B200900F4A1268517843
:105300000D4A526810786B460122FBF7AAFD10B1D6
:105310004FF0FF30CBE79DF80000401C4FF47A714E
:1053200091FBF0F081B20448C1810146C98948105F
:10533000FFF774FF0020BAE74000002038B50446AC
:1053400004F0700010B10120009005E014B10020BD
:10535000009001E0402000902B4A1268917C2A4A7C
:10536000526810786B460122FBF77BFD20B10021CB
:1053700025488172481E38BD9DF8000020F040018C
:10538000214801730020009004F0400020B99DF8EE
:10539000000040F00400009004F0200020B99DF8C7
:1053A000000040F00200009004F0100020B99DF8C9
:1053B000000040F00100009004F0080020B99DF8C2
:1053C000000040F0380000900F4A1268D17C0E4A6D
:1053D000526810786B460122FBF743FD20B1002193
:1053E00009488172481EC6E724B1082C02D000206B
:1053F000FFF7DEFE04488472002101753220FDF7BC
:1054000017FD0020B7E7000040000020F8B5044673
:105410000D46164616B94FF0FF30F8BD1A48807A8F
:1054200010B94FF0FF30F8E720128DF80000E0B21D
:105430008DF801009DF80100284413494968498905
:10544000884202DD4FF0FF30E7E70F4A1268117E15
:105450000D4A526810786B460222FBF702FD10B12C
:105460004FF0FF30D9E7EAB2074B1B68597D064B76
:105470005B6818783346FBF7F4FC10B14FF0FF304F
:10548000CBE70020C9E700004000002030B589B01C
:1054900005460C460121C802FCF752FB01214020C1
:1054A000FCF74EFB01210846FCF74AFB0121394875
:1054B000FBF732FA4FF40070ADF8200003208DF8AE
:1054C000220018208DF8230008A93348FBF799F92A
:1054D0004FF40060ADF8200008A92F48FBF791F9C0
:1054E0004FF40050ADF8200008A92B48FBF789F9CC
:1054F0004FF48040ADF8200008A92748FBF781F958
:105500000020ADF816008DF81C00ADF81850ADF86D
:105510001440ADF81A0005A92048FCF741FE7020A0
:10552000ADF804000120ADF806000220ADF80C0033
:105530000020ADF80A0001A91848FCF7CBFC01A92E
:105540001648FCF71DFD01A91448FCF779FD01A9D7
:105550001248FCF7CFFD08211048FCF707FD082191
:105560000E48FCF75FFD08210C48FCF7B9FD082147
:105570000A48FCF7FDFD01210848FCF767FC012102
:105580000648FCF772FC01210448FCF77AFC09B0DC
:1055900030BD0000C000160000180140002C014082
:1055A00030B589B005460C4601210220FCF7B8FA57
:1055B00001210420FCF7C4FA01210820FCF7C0FAFD
:1055C00001210846FCF7BCFA4020ADF8200003207A
:1055D0008DF8220018208DF8230008A93548FBF724
:1055E00010F98020ADF8200003208DF8220018204B
:1055F0008DF8230008A92F48FBF703F90120ADF827
:10560000200003208DF8220018208DF8230008A91F
:105610002948FBF7F6F80220ADF8200003208DF8AA
:10562000220018208DF8230008A92348FBF7E9F889
:105630000020ADF816008DF81C00ADF81850ADF83C
:105640001440ADF81A0005A91C48FCF7A9FD70200C
:10565000ADF804000120ADF806000220ADF80C0002
:105660000020ADF80A0001A91448FCF733FC01A999
:105670001248FCF785FC01A91048FCF7E1FC01A9E0
:105680000E48FCF737FD08210C48FCF76FFC082199
:105690000A48FCF7C7FC08210848FCF721FD08214F
:1056A0000648FCF765FD01210448FCF7DEFB09B064
:1056B00030BD000000080140000C01400004004023
:1056C00030B589B005460C4601210420FCF728FAC4
:1056D00001212020FCF734FA01210846FCF730FABA
:1056E00001210803FBF718F94FF48050ADF81400BE
:1056F00003208DF8160018208DF8170005A91D4805
:10570000FBF77FF84FF40050ADF8140005A91948D5
:10571000FBF777F80020ADF81A00ADF81C50ADF893
:105720001840ADF81E0006A91348FCF739FD70209B
:10573000ADF804000120ADF806000220ADF80C0021
:105740000020ADF80A0001A90B48FCF7C3FB01A932
:105750000948FCF715FC08210748FCF707FC08215D
:105760000548FCF75FFC01210348FCF77EFB09B00C
:1057700030BD0000001401400008004030B589B081
:1057800005460C4601210420FCF7DAF90121082026
:10579000FCF7C6F901210846FCF7D2F90120ADF863
:1057A000100003208DF8120018208DF8130004A9B2
:1057B0001C48FBF726F80020ADF81A00ADF81C5085
:1057C000ADF81840ADF81E0006A91748FCF7E8FC34
:1057D0007020ADF800000120ADF802000220ADF805
:1057E00008000020ADF8060069460F48FCF772FB80
:1057F00008210D48FCF7BAFB012211460A48FCF7C4
:1058000060FB32208DF8140001208DF81700022073
:105810008DF815008DF8160005A8FCF747F809B0BB
:1058200030BD000000080140000C004070B588B099
:1058300002A905A8FFF7BAFA0446032C3ED101A835
:10584000FEF70CFF059801F009F80646019901F0F2
:1058500065F8054600F0C6FF0590069800F0FEFFCB
:105860000646019901F05AF8054600F0BBFF069084
:10587000079800F0F3FF0646019901F04FF805463E
:1058800000F0B0FF079005A8FDF756FE6846FEF74A
:1058900091FEBDF80010029848430290BDF8001038
:1058A000039848430390BDF80010049848430490BF
:1058B00002A8FDF771FD002008B070BD0120FBE7D4
:1058C00038B50446214890F82400C0B114B1022034
:1058D000009001E0002000901C4A1268D17B1B4A16
:1058E000526810786B460122FBF7BBFA10B14FF0FB
:1058F000FF3038BD9DF800101448417423E0134870
:10590000807A10B94FF0FF30F3E724B10F48407CA4
:1059100008B10020EDE714B10120009001E0002063
:1059200000900A4A1268D17B084A526810786B4688
:105930000122FBF796FA10B14FF0FF30D9E79DF83E
:105940000010024841740020D3E70000400000200E
:105950002DE9F04106460F4600F0E4FB041E0D461B
:1059600018BF0120284320F00040C0F17F6000F103
:10597000E040C00F0ED0301C18BF0120384320F08B
:105980000040C0F17F6000F1E040C00F04BF012083
:10599000FAF726FE20462946BDE8F08110B586B00C
:1059A0000446012144F20400FCF7CAF84FF40070E9
:1059B000ADF8140003208DF8160018208DF817009C
:1059C00005A91E48FAF71DFF4FF48060ADF81400DA
:1059D00004208DF8170005A91848FAF712FF2520B2
:1059E0008DF8000001208DF801008DF802008DF87F
:1059F00003006846FBF75AFF01944FF48050ADF85E
:105A000008000020ADF80A004FF48060ADF80C00EB
:105A10000020ADF810000C20ADF80E0001A90848D8
:105A2000FCF75CFD012240F225510548FCF731FDF1
:105A300001210348FCF7EAFC06B010BD0008014054
:105A40000038014030B503460022002103E0585CD5
:105A50000244481CC1B20F29F9DB02F251407824FC
:105A600090FBF4F504FB1502D0B230BD21F00042EA
:105A7000A2F16052B2F5801F01F0004328BFD2F1BD
:105A80007F6C0BD95FEA001C43EAC20242EB507004
:105A900018BF704728BF20F001007047B2F5801F83
:105AA000BCBF184670474FEA410C1CF5001F02D2DC
:105AB000084600F0FABF70B500F0D4FA0000008983
:105AC000FFF7F6BF4FF00040A0F5800070470000E0
:105AD00010B591EA030F48BF83F0004300F1108432
